{
  "contractName": "EduForAllCourse",
  "abi": [
    {
      "inputs": [
        {
          "internalType": "bytes32",
          "name": "_keyhash",
          "type": "bytes32"
        }
      ],
      "stateMutability": "nonpayable",
      "type": "constructor"
    },
    {
      "anonymous": false,
      "inputs": [
        {
          "indexed": true,
          "internalType": "address",
          "name": "owner",
          "type": "address"
        },
        {
          "indexed": true,
          "internalType": "address",
          "name": "approved",
          "type": "address"
        },
        {
          "indexed": true,
          "internalType": "uint256",
          "name": "tokenId",
          "type": "uint256"
        }
      ],
      "name": "Approval",
      "type": "event"
    },
    {
      "anonymous": false,
      "inputs": [
        {
          "indexed": true,
          "internalType": "address",
          "name": "owner",
          "type": "address"
        },
        {
          "indexed": true,
          "internalType": "address",
          "name": "operator",
          "type": "address"
        },
        {
          "indexed": false,
          "internalType": "bool",
          "name": "approved",
          "type": "bool"
        }
      ],
      "name": "ApprovalForAll",
      "type": "event"
    },
    {
      "anonymous": false,
      "inputs": [
        {
          "indexed": true,
          "internalType": "address",
          "name": "previousOwner",
          "type": "address"
        },
        {
          "indexed": true,
          "internalType": "address",
          "name": "newOwner",
          "type": "address"
        }
      ],
      "name": "OwnershipTransferred",
      "type": "event"
    },
    {
      "anonymous": false,
      "inputs": [
        {
          "indexed": true,
          "internalType": "address",
          "name": "from",
          "type": "address"
        },
        {
          "indexed": true,
          "internalType": "address",
          "name": "to",
          "type": "address"
        },
        {
          "indexed": true,
          "internalType": "uint256",
          "name": "tokenId",
          "type": "uint256"
        }
      ],
      "name": "Transfer",
      "type": "event"
    },
    {
      "inputs": [],
      "name": "LinkToken",
      "outputs": [
        {
          "internalType": "address",
          "name": "",
          "type": "address"
        }
      ],
      "stateMutability": "view",
      "type": "function",
      "constant": true
    },
    {
      "inputs": [],
      "name": "VRFCoordinator",
      "outputs": [
        {
          "internalType": "address",
          "name": "",
          "type": "address"
        }
      ],
      "stateMutability": "view",
      "type": "function",
      "constant": true
    },
    {
      "inputs": [
        {
          "internalType": "address",
          "name": "to",
          "type": "address"
        },
        {
          "internalType": "uint256",
          "name": "tokenId",
          "type": "uint256"
        }
      ],
      "name": "approve",
      "outputs": [],
      "stateMutability": "nonpayable",
      "type": "function"
    },
    {
      "inputs": [
        {
          "internalType": "address",
          "name": "owner",
          "type": "address"
        }
      ],
      "name": "balanceOf",
      "outputs": [
        {
          "internalType": "uint256",
          "name": "",
          "type": "uint256"
        }
      ],
      "stateMutability": "view",
      "type": "function",
      "constant": true
    },
    {
      "inputs": [],
      "name": "baseURI",
      "outputs": [
        {
          "internalType": "string",
          "name": "",
          "type": "string"
        }
      ],
      "stateMutability": "view",
      "type": "function",
      "constant": true
    },
    {
      "inputs": [
        {
          "internalType": "uint256",
          "name": "",
          "type": "uint256"
        }
      ],
      "name": "certificates",
      "outputs": [
        {
          "internalType": "string",
          "name": "code",
          "type": "string"
        },
        {
          "internalType": "string",
          "name": "name",
          "type": "string"
        },
        {
          "internalType": "string",
          "name": "difficulty",
          "type": "string"
        },
        {
          "internalType": "uint256",
          "name": "score",
          "type": "uint256"
        },
        {
          "internalType": "address",
          "name": "owner",
          "type": "address"
        }
      ],
      "stateMutability": "view",
      "type": "function",
      "constant": true
    },
    {
      "inputs": [
        {
          "internalType": "uint256",
          "name": "tokenId",
          "type": "uint256"
        }
      ],
      "name": "getApproved",
      "outputs": [
        {
          "internalType": "address",
          "name": "",
          "type": "address"
        }
      ],
      "stateMutability": "view",
      "type": "function",
      "constant": true
    },
    {
      "inputs": [
        {
          "internalType": "address",
          "name": "owner",
          "type": "address"
        },
        {
          "internalType": "address",
          "name": "operator",
          "type": "address"
        }
      ],
      "name": "isApprovedForAll",
      "outputs": [
        {
          "internalType": "bool",
          "name": "",
          "type": "bool"
        }
      ],
      "stateMutability": "view",
      "type": "function",
      "constant": true
    },
    {
      "inputs": [],
      "name": "name",
      "outputs": [
        {
          "internalType": "string",
          "name": "",
          "type": "string"
        }
      ],
      "stateMutability": "view",
      "type": "function",
      "constant": true
    },
    {
      "inputs": [],
      "name": "owner",
      "outputs": [
        {
          "internalType": "address",
          "name": "",
          "type": "address"
        }
      ],
      "stateMutability": "view",
      "type": "function",
      "constant": true
    },
    {
      "inputs": [
        {
          "internalType": "uint256",
          "name": "tokenId",
          "type": "uint256"
        }
      ],
      "name": "ownerOf",
      "outputs": [
        {
          "internalType": "address",
          "name": "",
          "type": "address"
        }
      ],
      "stateMutability": "view",
      "type": "function",
      "constant": true
    },
    {
      "inputs": [],
      "name": "randomResult",
      "outputs": [
        {
          "internalType": "uint256",
          "name": "",
          "type": "uint256"
        }
      ],
      "stateMutability": "view",
      "type": "function",
      "constant": true
    },
    {
      "inputs": [],
      "name": "renounceOwnership",
      "outputs": [],
      "stateMutability": "nonpayable",
      "type": "function"
    },
    {
      "inputs": [
        {
          "internalType": "address",
          "name": "from",
          "type": "address"
        },
        {
          "internalType": "address",
          "name": "to",
          "type": "address"
        },
        {
          "internalType": "uint256",
          "name": "tokenId",
          "type": "uint256"
        }
      ],
      "name": "safeTransferFrom",
      "outputs": [],
      "stateMutability": "nonpayable",
      "type": "function"
    },
    {
      "inputs": [
        {
          "internalType": "address",
          "name": "from",
          "type": "address"
        },
        {
          "internalType": "address",
          "name": "to",
          "type": "address"
        },
        {
          "internalType": "uint256",
          "name": "tokenId",
          "type": "uint256"
        },
        {
          "internalType": "bytes",
          "name": "_data",
          "type": "bytes"
        }
      ],
      "name": "safeTransferFrom",
      "outputs": [],
      "stateMutability": "nonpayable",
      "type": "function"
    },
    {
      "inputs": [
        {
          "internalType": "address",
          "name": "operator",
          "type": "address"
        },
        {
          "internalType": "bool",
          "name": "approved",
          "type": "bool"
        }
      ],
      "name": "setApprovalForAll",
      "outputs": [],
      "stateMutability": "nonpayable",
      "type": "function"
    },
    {
      "inputs": [
        {
          "internalType": "bytes4",
          "name": "interfaceId",
          "type": "bytes4"
        }
      ],
      "name": "supportsInterface",
      "outputs": [
        {
          "internalType": "bool",
          "name": "",
          "type": "bool"
        }
      ],
      "stateMutability": "view",
      "type": "function",
      "constant": true
    },
    {
      "inputs": [],
      "name": "symbol",
      "outputs": [
        {
          "internalType": "string",
          "name": "",
          "type": "string"
        }
      ],
      "stateMutability": "view",
      "type": "function",
      "constant": true
    },
    {
      "inputs": [
        {
          "internalType": "uint256",
          "name": "index",
          "type": "uint256"
        }
      ],
      "name": "tokenByIndex",
      "outputs": [
        {
          "internalType": "uint256",
          "name": "",
          "type": "uint256"
        }
      ],
      "stateMutability": "view",
      "type": "function",
      "constant": true
    },
    {
      "inputs": [
        {
          "internalType": "address",
          "name": "owner",
          "type": "address"
        },
        {
          "internalType": "uint256",
          "name": "index",
          "type": "uint256"
        }
      ],
      "name": "tokenOfOwnerByIndex",
      "outputs": [
        {
          "internalType": "uint256",
          "name": "",
          "type": "uint256"
        }
      ],
      "stateMutability": "view",
      "type": "function",
      "constant": true
    },
    {
      "inputs": [
        {
          "internalType": "uint256",
          "name": "tokenId",
          "type": "uint256"
        }
      ],
      "name": "tokenURI",
      "outputs": [
        {
          "internalType": "string",
          "name": "",
          "type": "string"
        }
      ],
      "stateMutability": "view",
      "type": "function",
      "constant": true
    },
    {
      "inputs": [],
      "name": "totalSupply",
      "outputs": [
        {
          "internalType": "uint256",
          "name": "",
          "type": "uint256"
        }
      ],
      "stateMutability": "view",
      "type": "function",
      "constant": true
    },
    {
      "inputs": [
        {
          "internalType": "address",
          "name": "from",
          "type": "address"
        },
        {
          "internalType": "address",
          "name": "to",
          "type": "address"
        },
        {
          "internalType": "uint256",
          "name": "tokenId",
          "type": "uint256"
        }
      ],
      "name": "transferFrom",
      "outputs": [],
      "stateMutability": "nonpayable",
      "type": "function"
    },
    {
      "inputs": [
        {
          "internalType": "address",
          "name": "newOwner",
          "type": "address"
        }
      ],
      "name": "transferOwnership",
      "outputs": [],
      "stateMutability": "nonpayable",
      "type": "function"
    },
    {
      "inputs": [
        {
          "internalType": "string",
          "name": "code",
          "type": "string"
        },
        {
          "internalType": "string",
          "name": "name",
          "type": "string"
        },
        {
          "internalType": "string",
          "name": "difficulty",
          "type": "string"
        },
        {
          "internalType": "uint256",
          "name": "score",
          "type": "uint256"
        }
      ],
      "name": "requestCertificate",
      "outputs": [
        {
          "internalType": "string",
          "name": "",
          "type": "string"
        }
      ],
      "stateMutability": "nonpayable",
      "type": "function"
    },
    {
      "inputs": [
        {
          "internalType": "uint256",
          "name": "tokenId",
          "type": "uint256"
        }
      ],
      "name": "getName",
      "outputs": [
        {
          "internalType": "string",
          "name": "",
          "type": "string"
        }
      ],
      "stateMutability": "view",
      "type": "function",
      "constant": true
    },
    {
      "inputs": [
        {
          "internalType": "uint256",
          "name": "tokenId",
          "type": "uint256"
        }
      ],
      "name": "getDifficulty",
      "outputs": [
        {
          "internalType": "string",
          "name": "",
          "type": "string"
        }
      ],
      "stateMutability": "view",
      "type": "function",
      "constant": true
    },
    {
      "inputs": [
        {
          "internalType": "uint256",
          "name": "tokenId",
          "type": "uint256"
        }
      ],
      "name": "getCourseOverView",
      "outputs": [
        {
          "internalType": "string",
          "name": "",
          "type": "string"
        },
        {
          "internalType": "string",
          "name": "",
          "type": "string"
        },
        {
          "internalType": "string",
          "name": "",
          "type": "string"
        },
        {
          "internalType": "uint256",
          "name": "",
          "type": "uint256"
        }
      ],
      "stateMutability": "view",
      "type": "function",
      "constant": true
    },
    {
      "inputs": [
        {
          "internalType": "string",
          "name": "courseCode",
          "type": "string"
        }
      ],
      "name": "checkCompletion",
      "outputs": [
        {
          "internalType": "bool",
          "name": "",
          "type": "bool"
        }
      ],
      "stateMutability": "view",
      "type": "function",
      "constant": true
    },
    {
      "inputs": [
        {
          "internalType": "string",
          "name": "a",
          "type": "string"
        },
        {
          "internalType": "string",
          "name": "b",
          "type": "string"
        }
      ],
      "name": "stringsEqual",
      "outputs": [
        {
          "internalType": "bool",
          "name": "",
          "type": "bool"
        }
      ],
      "stateMutability": "view",
      "type": "function",
      "constant": true
    },
    {
      "inputs": [
        {
          "internalType": "uint256",
          "name": "tokenId",
          "type": "uint256"
        }
      ],
      "name": "getTokenURI",
      "outputs": [
        {
          "internalType": "string",
          "name": "",
          "type": "string"
        }
      ],
      "stateMutability": "view",
      "type": "function",
      "constant": true
    }
  ],
  "bytecode": "0x60806040523480156200001157600080fd5b5060405162004a0838038062004a08833981810160405260208110156200003757600080fd5b81019080805190602001909291905050506040518060400160405280600d81526020017f45647534616c6c436f75727365000000000000000000000000000000000000008152506040518060400160405280600481526020017f4544554300000000000000000000000000000000000000000000000000000000815250620000cc6301ffc9a760e01b6200021660201b60201c565b8160069080519060200190620000e492919062000327565b508060079080519060200190620000fd92919062000327565b50620001166380ac58cd60e01b6200021660201b60201c565b6200012e635b5e139f60e01b6200021660201b60201c565b6200014663780e9d6360e01b6200021660201b60201c565b505060006200015a6200031f60201b60201c565b905080600a60006101000a81548173ffffffffffffffffffffffffffffffffffffffff021916908373ffffffffffffffffffffffffffffffffffffffff1602179055508073ffffffffffffffffffffffffffffffffffffffff16600073ffffffffffffffffffffffffffffffffffffffff167f8be0079c531659141344cd1fd0a4f28419497f9722a3daafe3b4186f6b6457e060405160405180910390a35080600b8190555067016345785d8a0000600c8190555050620003d6565b63ffffffff60e01b817bffffffffffffffffffffffffffffffffffffffffffffffffffffffff19161415620002b3576040517f08c379a000000000000000000000000000000000000000000000000000000000815260040180806020018281038252601c8152602001807f4552433136353a20696e76616c696420696e746572666163652069640000000081525060200191505060405180910390fd5b6001600080837bffffffffffffffffffffffffffffffffffffffffffffffffffffffff19167bffffffffffffffffffffffffffffffffffffffffffffffffffffffff1916815260200190815260200160002060006101000a81548160ff02191690831515021790555050565b600033905090565b828054600181600116156101000203166002900490600052602060002090601f016020900481019282601f106200036a57805160ff19168380011785556200039b565b828001600101855582156200039b579182015b828111156200039a5782518255916020019190600101906200037d565b5b509050620003aa9190620003ae565b5090565b620003d391905b80821115620003cf576000816000905550600101620003b5565b5090565b90565b61462280620003e66000396000f3fe608060405234801561001057600080fd5b50600436106101e55760003560e01c80634f8e2fdf1161010f57806395d89b41116100a2578063c87b56dd11610071578063c87b56dd146111aa578063cee969a114611251578063e985e9c5146113d7578063f2fde38b14611453576101e5565b806395d89b4114610f2b578063983ef72514610fae578063a22cb46514611055578063b88d4fde146110a5576101e5565b80636c0360eb116100de5780636c0360eb14610dfc57806370a0823114610e7f578063715018a614610ed75780638da5cb5b14610ee1576101e5565b80634f8e2fdf14610ae45780636352211e14610b2e578063663b3e2214610b9c5780636b8ff57414610d55576101e5565b80632621e9f4116101875780633da82bb7116101565780633da82bb7146107aa57806342619f6614610a1657806342842e0e14610a345780634f6ccce714610aa2576101e5565b80632621e9f4146105845780632f745c591461065757806333b60863146106b95780633bb3a24d14610703576101e5565b8063095ea7b3116101c3578063095ea7b31461034057806313d199501461038e57806318160ddd146104f857806323b872dd14610516576101e5565b806301ffc9a7146101ea57806306fdde031461024f578063081812fc146102d2575b600080fd5b6102356004803603602081101561020057600080fd5b8101908080357bffffffffffffffffffffffffffffffffffffffffffffffffffffffff19169060200190929190505050611497565b604051808215151515815260200191505060405180910390f35b6102576114fe565b6040518080602001828103825283818151815260200191508051906020019080838360005b8381101561029757808201518184015260208101905061027c565b50505050905090810190601f1680156102c45780820380516001836020036101000a031916815260200191505b509250505060405180910390f35b6102fe600480360360208110156102e857600080fd5b81019080803590602001909291905050506115a0565b604051808273ffffffffffffffffffffffffffffffffffffffff1673ffffffffffffffffffffffffffffffffffffffff16815260200191505060405180910390f35b61038c6004803603604081101561035657600080fd5b81019080803573ffffffffffffffffffffffffffffffffffffffff1690602001909291908035906020019092919050505061163b565b005b6104de600480360360408110156103a457600080fd5b81019080803590602001906401000000008111156103c157600080fd5b8201836020820111156103d357600080fd5b803590602001918460018302840111640100000000831117156103f557600080fd5b91908080601f016020809104026020016040519081016040528093929190818152602001838380828437600081840152601f19601f8201169050808301925050505050505091929192908035906020019064010000000081111561045857600080fd5b82018360208201111561046a57600080fd5b8035906020019184600183028401116401000000008311171561048c57600080fd5b91908080601f016020809104026020016040519081016040528093929190818152602001838380828437600081840152601f19601f82011690508083019250505050505050919291929050505061177f565b604051808215151515815260200191505060405180910390f35b61050061186e565b6040518082815260200191505060405180910390f35b6105826004803603606081101561052c57600080fd5b81019080803573ffffffffffffffffffffffffffffffffffffffff169060200190929190803573ffffffffffffffffffffffffffffffffffffffff1690602001909291908035906020019092919050505061187f565b005b61063d6004803603602081101561059a57600080fd5b81019080803590602001906401000000008111156105b757600080fd5b8201836020820111156105c957600080fd5b803590602001918460018302840111640100000000831117156105eb57600080fd5b91908080601f016020809104026020016040519081016040528093929190818152602001838380828437600081840152601f19601f8201169050808301925050505050505091929192905050506118f5565b604051808215151515815260200191505060405180910390f35b6106a36004803603604081101561066d57600080fd5b81019080803573ffffffffffffffffffffffffffffffffffffffff16906020019092919080359060200190929190505050611a66565b6040518082815260200191505060405180910390f35b6106c1611ac1565b604051808273ffffffffffffffffffffffffffffffffffffffff1673ffffffffffffffffffffffffffffffffffffffff16815260200191505060405180910390f35b61072f6004803603602081101561071957600080fd5b8101908080359060200190929190505050611ae7565b6040518080602001828103825283818151815260200191508051906020019080838360005b8381101561076f578082015181840152602081019050610754565b50505050905090810190601f16801561079c5780820380516001836020036101000a031916815260200191505b509250505060405180910390f35b61099b600480360360808110156107c057600080fd5b81019080803590602001906401000000008111156107dd57600080fd5b8201836020820111156107ef57600080fd5b8035906020019184600183028401116401000000008311171561081157600080fd5b91908080601f016020809104026020016040519081016040528093929190818152602001838380828437600081840152601f19601f8201169050808301925050505050505091929192908035906020019064010000000081111561087457600080fd5b82018360208201111561088657600080fd5b803590602001918460018302840111640100000000831117156108a857600080fd5b91908080601f016020809104026020016040519081016040528093929190818152602001838380828437600081840152601f19601f8201169050808301925050505050505091929192908035906020019064010000000081111561090b57600080fd5b82018360208201111561091d57600080fd5b8035906020019184600183028401116401000000008311171561093f57600080fd5b91908080601f016020809104026020016040519081016040528093929190818152602001838380828437600081840152601f19601f82011690508083019250505050505050919291929080359060200190929190505050611af9565b6040518080602001828103825283818151815260200191508051906020019080838360005b838110156109db5780820151818401526020810190506109c0565b50505050905090810190601f168015610a085780820380516001836020036101000a031916815260200191505b509250505060405180910390f35b610a1e611dfc565b6040518082815260200191505060405180910390f35b610aa060048036036060811015610a4a57600080fd5b81019080803573ffffffffffffffffffffffffffffffffffffffff169060200190929190803573ffffffffffffffffffffffffffffffffffffffff16906020019092919080359060200190929190505050611e02565b005b610ace60048036036020811015610ab857600080fd5b8101908080359060200190929190505050611e22565b6040518082815260200191505060405180910390f35b610aec611e45565b604051808273ffffffffffffffffffffffffffffffffffffffff1673ffffffffffffffffffffffffffffffffffffffff16815260200191505060405180910390f35b610b5a60048036036020811015610b4457600080fd5b8101908080359060200190929190505050611e6b565b604051808273ffffffffffffffffffffffffffffffffffffffff1673ffffffffffffffffffffffffffffffffffffffff16815260200191505060405180910390f35b610bc860048036036020811015610bb257600080fd5b8101908080359060200190929190505050611ea2565b604051808060200180602001806020018681526020018573ffffffffffffffffffffffffffffffffffffffff1673ffffffffffffffffffffffffffffffffffffffff168152602001848103845289818151815260200191508051906020019080838360005b83811015610c48578082015181840152602081019050610c2d565b50505050905090810190601f168015610c755780820380516001836020036101000a031916815260200191505b50848103835288818151815260200191508051906020019080838360005b83811015610cae578082015181840152602081019050610c93565b50505050905090810190601f168015610cdb5780820380516001836020036101000a031916815260200191505b50848103825287818151815260200191508051906020019080838360005b83811015610d14578082015181840152602081019050610cf9565b50505050905090810190601f168015610d415780820380516001836020036101000a031916815260200191505b509850505050505050505060405180910390f35b610d8160048036036020811015610d6b57600080fd5b81019080803590602001909291905050506120cd565b6040518080602001828103825283818151815260200191508051906020019080838360005b83811015610dc1578082015181840152602081019050610da6565b50505050905090810190601f168015610dee5780820380516001836020036101000a031916815260200191505b509250505060405180910390f35b610e0461218d565b6040518080602001828103825283818151815260200191508051906020019080838360005b83811015610e44578082015181840152602081019050610e29565b50505050905090810190601f168015610e715780820380516001836020036101000a031916815260200191505b509250505060405180910390f35b610ec160048036036020811015610e9557600080fd5b81019080803573ffffffffffffffffffffffffffffffffffffffff16906020019092919050505061222f565b6040518082815260200191505060405180910390f35b610edf612304565b005b610ee9612474565b604051808273ffffffffffffffffffffffffffffffffffffffff1673ffffffffffffffffffffffffffffffffffffffff16815260200191505060405180910390f35b610f3361249e565b6040518080602001828103825283818151815260200191508051906020019080838360005b83811015610f73578082015181840152602081019050610f58565b50505050905090810190601f168015610fa05780820380516001836020036101000a031916815260200191505b509250505060405180910390f35b610fda60048036036020811015610fc457600080fd5b8101908080359060200190929190505050612540565b6040518080602001828103825283818151815260200191508051906020019080838360005b8381101561101a578082015181840152602081019050610fff565b50505050905090810190601f1680156110475780820380516001836020036101000a031916815260200191505b509250505060405180910390f35b6110a36004803603604081101561106b57600080fd5b81019080803573ffffffffffffffffffffffffffffffffffffffff169060200190929190803515159060200190929190505050612600565b005b6111a8600480360360808110156110bb57600080fd5b81019080803573ffffffffffffffffffffffffffffffffffffffff169060200190929190803573ffffffffffffffffffffffffffffffffffffffff169060200190929190803590602001909291908035906020019064010000000081111561112257600080fd5b82018360208201111561113457600080fd5b8035906020019184600183028401116401000000008311171561115657600080fd5b91908080601f016020809104026020016040519081016040528093929190818152602001838380828437600081840152601f19601f8201169050808301925050505050505091929192905050506127b8565b005b6111d6600480360360208110156111c057600080fd5b8101908080359060200190929190505050612830565b6040518080602001828103825283818151815260200191508051906020019080838360005b838110156112165780820151818401526020810190506111fb565b50505050905090810190601f1680156112435780820380516001836020036101000a031916815260200191505b509250505060405180910390f35b61127d6004803603602081101561126757600080fd5b8101908080359060200190929190505050612b01565b60405180806020018060200180602001858152602001848103845288818151815260200191508051906020019080838360005b838110156112cb5780820151818401526020810190506112b0565b50505050905090810190601f1680156112f85780820380516001836020036101000a031916815260200191505b50848103835287818151815260200191508051906020019080838360005b83811015611331578082015181840152602081019050611316565b50505050905090810190601f16801561135e5780820380516001836020036101000a031916815260200191505b50848103825286818151815260200191508051906020019080838360005b8381101561139757808201518184015260208101905061137c565b50505050905090810190601f1680156113c45780820380516001836020036101000a031916815260200191505b5097505050505050505060405180910390f35b611439600480360360408110156113ed57600080fd5b81019080803573ffffffffffffffffffffffffffffffffffffffff169060200190929190803573ffffffffffffffffffffffffffffffffffffffff169060200190929190505050612d64565b604051808215151515815260200191505060405180910390f35b6114956004803603602081101561146957600080fd5b81019080803573ffffffffffffffffffffffffffffffffffffffff169060200190929190505050612df8565b005b6000806000837bffffffffffffffffffffffffffffffffffffffffffffffffffffffff19167bffffffffffffffffffffffffffffffffffffffffffffffffffffffff1916815260200190815260200160002060009054906101000a900460ff169050919050565b606060068054600181600116156101000203166002900480601f0160208091040260200160405190810160405280929190818152602001828054600181600116156101000203166002900480156115965780601f1061156b57610100808354040283529160200191611596565b820191906000526020600020905b81548152906001019060200180831161157957829003601f168201915b5050505050905090565b60006115ab82612fed565b611600576040517f08c379a000000000000000000000000000000000000000000000000000000000815260040180806020018281038252602c815260200180614517602c913960400191505060405180910390fd5b6004600083815260200190815260200160002060009054906101000a900473ffffffffffffffffffffffffffffffffffffffff169050919050565b600061164682611e6b565b90508073ffffffffffffffffffffffffffffffffffffffff168373ffffffffffffffffffffffffffffffffffffffff1614156116cd576040517f08c379a000000000000000000000000000000000000000000000000000000000815260040180806020018281038252602181526020018061459b6021913960400191505060405180910390fd5b8073ffffffffffffffffffffffffffffffffffffffff166116ec61300a565b73ffffffffffffffffffffffffffffffffffffffff16148061171b575061171a8161171561300a565b612d64565b5b611770576040517f08c379a000000000000000000000000000000000000000000000000000000000815260040180806020018281038252603881526020018061446a6038913960400191505060405180910390fd5b61177a8383613012565b505050565b6000816040516020018082805190602001908083835b602083106117b85780518252602082019150602081019050602083039250611795565b6001836020036101000a03801982511681845116808217855250505050505090500191505060405160208183030381529060405280519060200120836040516020018082805190602001908083835b6020831061182a5780518252602082019150602081019050602083039250611807565b6001836020036101000a0380198251168184511680821785525050505050509050019150506040516020818303038152906040528051906020012014905092915050565b600061187a60026130cb565b905090565b61189061188a61300a565b826130e0565b6118e5576040517f08c379a00000000000000000000000000000000000000000000000000000000081526004018080602001828103825260318152602001806145bc6031913960400191505060405180910390fd5b6118f08383836131d4565b505050565b600080600090505b601080549050811015611a5b573373ffffffffffffffffffffffffffffffffffffffff166010828154811061192e57fe5b906000526020600020906005020160040160009054906101000a900473ffffffffffffffffffffffffffffffffffffffff1673ffffffffffffffffffffffffffffffffffffffff16148015611a3f5750611a3e6010828154811061198e57fe5b90600052602060002090600502016000018054600181600116156101000203166002900480601f016020809104026020016040519081016040528092919081815260200182805460018160011615610100020316600290048015611a335780601f10611a0857610100808354040283529160200191611a33565b820191906000526020600020905b815481529060010190602001808311611a1657829003601f168201915b50505050508461177f565b5b15611a4e576001915050611a61565b80806001019150506118fd565b50600090505b919050565b6000611ab982600160008673ffffffffffffffffffffffffffffffffffffffff1673ffffffffffffffffffffffffffffffffffffffff16815260200190815260200160002061341790919063ffffffff16565b905092915050565b600e60009054906101000a900473ffffffffffffffffffffffffffffffffffffffff1681565b6060611af282612830565b9050919050565b606060008090505b601080549050811015611c93573373ffffffffffffffffffffffffffffffffffffffff1660108281548110611b3257fe5b906000526020600020906005020160040160009054906101000a900473ffffffffffffffffffffffffffffffffffffffff1673ffffffffffffffffffffffffffffffffffffffff16148015611c435750611c4260108281548110611b9257fe5b90600052602060002090600502016000018054600181600116156101000203166002900480601f016020809104026020016040519081016040528092919081815260200182805460018160011615610100020316600290048015611c375780601f10611c0c57610100808354040283529160200191611c37565b820191906000526020600020905b815481529060010190602001808311611c1a57829003601f168201915b50505050508761177f565b5b15611c86576040518060400160405280601581526020017f455252202d20616c726561647920617761726465640000000000000000000000815250915050611df4565b8080600101915050611b01565b506000601080549050905060106040518060a001604052808881526020018781526020018681526020018581526020013373ffffffffffffffffffffffffffffffffffffffff1681525090806001815401808255809150506001900390600052602060002090600502016000909190919091506000820151816000019080519060200190611d229291906142d4565b506020820151816001019080519060200190611d3f9291906142d4565b506040820151816002019080519060200190611d5c9291906142d4565b506060820151816003015560808201518160040160006101000a81548173ffffffffffffffffffffffffffffffffffffffff021916908373ffffffffffffffffffffffffffffffffffffffff1602179055505050611dba3382613431565b6040518060400160405280600781526020017f53554343455353000000000000000000000000000000000000000000000000008152509150505b949350505050565b600d5481565b611e1d838383604051806020016040528060008152506127b8565b505050565b600080611e3983600261344f90919063ffffffff16565b50905080915050919050565b600f60009054906101000a900473ffffffffffffffffffffffffffffffffffffffff1681565b6000611e9b826040518060600160405280602981526020016144cc60299139600261347e9092919063ffffffff16565b9050919050565b60108181548110611eaf57fe5b9060005260206000209060050201600091509050806000018054600181600116156101000203166002900480601f016020809104026020016040519081016040528092919081815260200182805460018160011615610100020316600290048015611f5b5780601f10611f3057610100808354040283529160200191611f5b565b820191906000526020600020905b815481529060010190602001808311611f3e57829003601f168201915b505050505090806001018054600181600116156101000203166002900480601f016020809104026020016040519081016040528092919081815260200182805460018160011615610100020316600290048015611ff95780601f10611fce57610100808354040283529160200191611ff9565b820191906000526020600020905b815481529060010190602001808311611fdc57829003601f168201915b505050505090806002018054600181600116156101000203166002900480601f0160208091040260200160405190810160405280929190818152602001828054600181600116156101000203166002900480156120975780601f1061206c57610100808354040283529160200191612097565b820191906000526020600020905b81548152906001019060200180831161207a57829003601f168201915b5050505050908060030154908060040160009054906101000a900473ffffffffffffffffffffffffffffffffffffffff16905085565b6060601082815481106120dc57fe5b90600052602060002090600502016001018054600181600116156101000203166002900480601f0160208091040260200160405190810160405280929190818152602001828054600181600116156101000203166002900480156121815780601f1061215657610100808354040283529160200191612181565b820191906000526020600020905b81548152906001019060200180831161216457829003601f168201915b50505050509050919050565b606060098054600181600116156101000203166002900480601f0160208091040260200160405190810160405280929190818152602001828054600181600116156101000203166002900480156122255780601f106121fa57610100808354040283529160200191612225565b820191906000526020600020905b81548152906001019060200180831161220857829003601f168201915b5050505050905090565b60008073ffffffffffffffffffffffffffffffffffffffff168273ffffffffffffffffffffffffffffffffffffffff1614156122b6576040517f08c379a000000000000000000000000000000000000000000000000000000000815260040180806020018281038252602a8152602001806144a2602a913960400191505060405180910390fd5b6122fd600160008473ffffffffffffffffffffffffffffffffffffffff1673ffffffffffffffffffffffffffffffffffffffff16815260200190815260200160002061349d565b9050919050565b61230c61300a565b73ffffffffffffffffffffffffffffffffffffffff1661232a612474565b73ffffffffffffffffffffffffffffffffffffffff16146123b3576040517f08c379a00000000000000000000000000000000000000000000000000000000081526004018080602001828103825260208152602001807f4f776e61626c653a2063616c6c6572206973206e6f7420746865206f776e657281525060200191505060405180910390fd5b600073ffffffffffffffffffffffffffffffffffffffff16600a60009054906101000a900473ffffffffffffffffffffffffffffffffffffffff1673ffffffffffffffffffffffffffffffffffffffff167f8be0079c531659141344cd1fd0a4f28419497f9722a3daafe3b4186f6b6457e060405160405180910390a36000600a60006101000a81548173ffffffffffffffffffffffffffffffffffffffff021916908373ffffffffffffffffffffffffffffffffffffffff160217905550565b6000600a60009054906101000a900473ffffffffffffffffffffffffffffffffffffffff16905090565b606060078054600181600116156101000203166002900480601f0160208091040260200160405190810160405280929190818152602001828054600181600116156101000203166002900480156125365780601f1061250b57610100808354040283529160200191612536565b820191906000526020600020905b81548152906001019060200180831161251957829003601f168201915b5050505050905090565b60606010828154811061254f57fe5b90600052602060002090600502016002018054600181600116156101000203166002900480601f0160208091040260200160405190810160405280929190818152602001828054600181600116156101000203166002900480156125f45780601f106125c9576101008083540402835291602001916125f4565b820191906000526020600020905b8154815290600101906020018083116125d757829003601f168201915b50505050509050919050565b61260861300a565b73ffffffffffffffffffffffffffffffffffffffff168273ffffffffffffffffffffffffffffffffffffffff1614156126a9576040517f08c379a00000000000000000000000000000000000000000000000000000000081526004018080602001828103825260198152602001807f4552433732313a20617070726f766520746f2063616c6c65720000000000000081525060200191505060405180910390fd5b80600560006126b661300a565b73ffffffffffffffffffffffffffffffffffffffff1673ffffffffffffffffffffffffffffffffffffffff16815260200190815260200160002060008473ffffffffffffffffffffffffffffffffffffffff1673ffffffffffffffffffffffffffffffffffffffff16815260200190815260200160002060006101000a81548160ff0219169083151502179055508173ffffffffffffffffffffffffffffffffffffffff1661276361300a565b73ffffffffffffffffffffffffffffffffffffffff167f17307eab39ab6107e8899845ad3d59bd9653f200f220920489ca2b5937696c3183604051808215151515815260200191505060405180910390a35050565b6127c96127c361300a565b836130e0565b61281e576040517f08c379a00000000000000000000000000000000000000000000000000000000081526004018080602001828103825260318152602001806145bc6031913960400191505060405180910390fd5b61282a848484846134b2565b50505050565b606061283b82612fed565b612890576040517f08c379a000000000000000000000000000000000000000000000000000000000815260040180806020018281038252602f81526020018061456c602f913960400191505060405180910390fd5b6060600860008481526020019081526020016000208054600181600116156101000203166002900480601f0160208091040260200160405190810160405280929190818152602001828054600181600116156101000203166002900480156129395780601f1061290e57610100808354040283529160200191612939565b820191906000526020600020905b81548152906001019060200180831161291c57829003601f168201915b50505050509050606061294a61218d565b9050600081511415612960578192505050612afc565b600082511115612a315780826040516020018083805190602001908083835b602083106129a2578051825260208201915060208101905060208303925061297f565b6001836020036101000a03801982511681845116808217855250505050505090500182805190602001908083835b602083106129f357805182526020820191506020810190506020830392506129d0565b6001836020036101000a0380198251168184511680821785525050505050509050019250505060405160208183030381529060405292505050612afc565b80612a3b85613524565b6040516020018083805190602001908083835b60208310612a715780518252602082019150602081019050602083039250612a4e565b6001836020036101000a03801982511681845116808217855250505050505090500182805190602001908083835b60208310612ac25780518252602082019150602081019050602083039250612a9f565b6001836020036101000a03801982511681845116808217855250505050505090500192505050604051602081830303815290604052925050505b919050565b6060806060600060108581548110612b1557fe5b906000526020600020906005020160000160108681548110612b3357fe5b906000526020600020906005020160010160108781548110612b5157fe5b906000526020600020906005020160020160108881548110612b6f57fe5b906000526020600020906005020160030154838054600181600116156101000203166002900480601f016020809104026020016040519081016040528092919081815260200182805460018160011615610100020316600290048015612c165780601f10612beb57610100808354040283529160200191612c16565b820191906000526020600020905b815481529060010190602001808311612bf957829003601f168201915b50505050509350828054600181600116156101000203166002900480601f016020809104026020016040519081016040528092919081815260200182805460018160011615610100020316600290048015612cb25780601f10612c8757610100808354040283529160200191612cb2565b820191906000526020600020905b815481529060010190602001808311612c9557829003601f168201915b50505050509250818054600181600116156101000203166002900480601f016020809104026020016040519081016040528092919081815260200182805460018160011615610100020316600290048015612d4e5780601f10612d2357610100808354040283529160200191612d4e565b820191906000526020600020905b815481529060010190602001808311612d3157829003601f168201915b5050505050915093509350935093509193509193565b6000600560008473ffffffffffffffffffffffffffffffffffffffff1673ffffffffffffffffffffffffffffffffffffffff16815260200190815260200160002060008373ffffffffffffffffffffffffffffffffffffffff1673ffffffffffffffffffffffffffffffffffffffff16815260200190815260200160002060009054906101000a900460ff16905092915050565b612e0061300a565b73ffffffffffffffffffffffffffffffffffffffff16612e1e612474565b73ffffffffffffffffffffffffffffffffffffffff1614612ea7576040517f08c379a00000000000000000000000000000000000000000000000000000000081526004018080602001828103825260208152602001807f4f776e61626c653a2063616c6c6572206973206e6f7420746865206f776e657281525060200191505060405180910390fd5b600073ffffffffffffffffffffffffffffffffffffffff168173ffffffffffffffffffffffffffffffffffffffff161415612f2d576040517f08c379a00000000000000000000000000000000000000000000000000000000081526004018080602001828103825260268152602001806143ce6026913960400191505060405180910390fd5b8073ffffffffffffffffffffffffffffffffffffffff16600a60009054906101000a900473ffffffffffffffffffffffffffffffffffffffff1673ffffffffffffffffffffffffffffffffffffffff167f8be0079c531659141344cd1fd0a4f28419497f9722a3daafe3b4186f6b6457e060405160405180910390a380600a60006101000a81548173ffffffffffffffffffffffffffffffffffffffff021916908373ffffffffffffffffffffffffffffffffffffffff16021790555050565b600061300382600261365490919063ffffffff16565b9050919050565b600033905090565b816004600083815260200190815260200160002060006101000a81548173ffffffffffffffffffffffffffffffffffffffff021916908373ffffffffffffffffffffffffffffffffffffffff160217905550808273ffffffffffffffffffffffffffffffffffffffff1661308583611e6b565b73ffffffffffffffffffffffffffffffffffffffff167f8c5be1e5ebec7d5bd14f71427d1e84f3dd0314c0f7b2291e5b200ac8c7c3b92560405160405180910390a45050565b60006130d98260000161366e565b9050919050565b60006130eb82612fed565b613140576040517f08c379a000000000000000000000000000000000000000000000000000000000815260040180806020018281038252602c81526020018061443e602c913960400191505060405180910390fd5b600061314b83611e6b565b90508073ffffffffffffffffffffffffffffffffffffffff168473ffffffffffffffffffffffffffffffffffffffff1614806131ba57508373ffffffffffffffffffffffffffffffffffffffff166131a2846115a0565b73ffffffffffffffffffffffffffffffffffffffff16145b806131cb57506131ca8185612d64565b5b91505092915050565b8273ffffffffffffffffffffffffffffffffffffffff166131f482611e6b565b73ffffffffffffffffffffffffffffffffffffffff1614613260576040517f08c379a00000000000000000000000000000000000000000000000000000000081526004018080602001828103825260298152602001806145436029913960400191505060405180910390fd5b600073ffffffffffffffffffffffffffffffffffffffff168273ffffffffffffffffffffffffffffffffffffffff1614156132e6576040517f08c379a00000000000000000000000000000000000000000000000000000000081526004018080602001828103825260248152602001806143f46024913960400191505060405180910390fd5b6132f183838361367f565b6132fc600082613012565b61334d81600160008673ffffffffffffffffffffffffffffffffffffffff1673ffffffffffffffffffffffffffffffffffffffff16815260200190815260200160002061368490919063ffffffff16565b5061339f81600160008573ffffffffffffffffffffffffffffffffffffffff1673ffffffffffffffffffffffffffffffffffffffff16815260200190815260200160002061369e90919063ffffffff16565b506133b6818360026136b89092919063ffffffff16565b50808273ffffffffffffffffffffffffffffffffffffffff168473ffffffffffffffffffffffffffffffffffffffff167fddf252ad1be2c89b69c2b068fc378daa952ba7f163c4a11628f55a4df523b3ef60405160405180910390a4505050565b600061342683600001836136ed565b60001c905092915050565b61344b828260405180602001604052806000815250613770565b5050565b60008060008061346286600001866137e1565b915091508160001c8160001c8090509350935050509250929050565b6000613491846000018460001b8461387a565b60001c90509392505050565b60006134ab82600001613970565b9050919050565b6134bd8484846131d4565b6134c984848484613981565b61351e576040517f08c379a000000000000000000000000000000000000000000000000000000000815260040180806020018281038252603281526020018061439c6032913960400191505060405180910390fd5b50505050565b6060600082141561356c576040518060400160405280600181526020017f3000000000000000000000000000000000000000000000000000000000000000815250905061364f565b600082905060005b60008214613596578080600101915050600a828161358e57fe5b049150613574565b6060816040519080825280601f01601f1916602001820160405280156135cb5781602001600182028038833980820191505090505b50905060006001830390508593505b6000841461364757600a84816135ec57fe5b0660300160f81b8282806001900393508151811061360657fe5b60200101907effffffffffffffffffffffffffffffffffffffffffffffffffffffffffffff1916908160001a905350600a848161363f57fe5b0493506135da565b819450505050505b919050565b6000613666836000018360001b613bc6565b905092915050565b600081600001805490509050919050565b505050565b6000613696836000018360001b613be9565b905092915050565b60006136b0836000018360001b613cd1565b905092915050565b60006136e4846000018460001b8473ffffffffffffffffffffffffffffffffffffffff1660001b613d41565b90509392505050565b60008183600001805490501161374e576040517f08c379a000000000000000000000000000000000000000000000000000000000815260040180806020018281038252602281526020018061437a6022913960400191505060405180910390fd5b82600001828154811061375d57fe5b9060005260206000200154905092915050565b61377a8383613e1d565b6137876000848484613981565b6137dc576040517f08c379a000000000000000000000000000000000000000000000000000000000815260040180806020018281038252603281526020018061439c6032913960400191505060405180910390fd5b505050565b60008082846000018054905011613843576040517f08c379a00000000000000000000000000000000000000000000000000000000081526004018080602001828103825260228152602001806144f56022913960400191505060405180910390fd5b600084600001848154811061385457fe5b906000526020600020906002020190508060000154816001015492509250509250929050565b60008084600101600085815260200190815260200160002054905060008114158390613941576040517f08c379a00000000000000000000000000000000000000000000000000000000081526004018080602001828103825283818151815260200191508051906020019080838360005b838110156139065780820151818401526020810190506138eb565b50505050905090810190601f1680156139335780820380516001836020036101000a031916815260200191505b509250505060405180910390fd5b5084600001600182038154811061395457fe5b9060005260206000209060020201600101549150509392505050565b600081600001805490509050919050565b60006139a28473ffffffffffffffffffffffffffffffffffffffff16614011565b6139af5760019050613bbe565b6060613b4563150b7a0260e01b6139c461300a565b888787604051602401808573ffffffffffffffffffffffffffffffffffffffff1673ffffffffffffffffffffffffffffffffffffffff1681526020018473ffffffffffffffffffffffffffffffffffffffff1673ffffffffffffffffffffffffffffffffffffffff16815260200183815260200180602001828103825283818151815260200191508051906020019080838360005b83811015613a74578082015181840152602081019050613a59565b50505050905090810190601f168015613aa15780820380516001836020036101000a031916815260200191505b5095505050505050604051602081830303815290604052907bffffffffffffffffffffffffffffffffffffffffffffffffffffffff19166020820180517bffffffffffffffffffffffffffffffffffffffffffffffffffffffff838183161783525050505060405180606001604052806032815260200161439c603291398773ffffffffffffffffffffffffffffffffffffffff166140249092919063ffffffff16565b90506000818060200190516020811015613b5e57600080fd5b8101908080519060200190929190505050905063150b7a0260e01b7bffffffffffffffffffffffffffffffffffffffffffffffffffffffff1916817bffffffffffffffffffffffffffffffffffffffffffffffffffffffff191614925050505b949350505050565b600080836001016000848152602001908152602001600020541415905092915050565b60008083600101600084815260200190815260200160002054905060008114613cc55760006001820390506000600186600001805490500390506000866000018281548110613c3457fe5b9060005260206000200154905080876000018481548110613c5157fe5b9060005260206000200181905550600183018760010160008381526020019081526020016000208190555086600001805480613c8957fe5b60019003818190600052602060002001600090559055866001016000878152602001908152602001600020600090556001945050505050613ccb565b60009150505b92915050565b6000613cdd838361403c565b613d36578260000182908060018154018082558091505060019003906000526020600020016000909190919091505582600001805490508360010160008481526020019081526020016000208190555060019050613d3b565b600090505b92915050565b6000808460010160008581526020019081526020016000205490506000811415613de857846000016040518060400160405280868152602001858152509080600181540180825580915050600190039060005260206000209060020201600090919091909150600082015181600001556020820151816001015550508460000180549050856001016000868152602001908152602001600020819055506001915050613e16565b82856000016001830381548110613dfb57fe5b90600052602060002090600202016001018190555060009150505b9392505050565b600073ffffffffffffffffffffffffffffffffffffffff168273ffffffffffffffffffffffffffffffffffffffff161415613ec0576040517f08c379a00000000000000000000000000000000000000000000000000000000081526004018080602001828103825260208152602001807f4552433732313a206d696e7420746f20746865207a65726f206164647265737381525060200191505060405180910390fd5b613ec981612fed565b15613f3c576040517f08c379a000000000000000000000000000000000000000000000000000000000815260040180806020018281038252601c8152602001807f4552433732313a20746f6b656e20616c7265616479206d696e7465640000000081525060200191505060405180910390fd5b613f486000838361367f565b613f9981600160008573ffffffffffffffffffffffffffffffffffffffff1673ffffffffffffffffffffffffffffffffffffffff16815260200190815260200160002061369e90919063ffffffff16565b50613fb0818360026136b89092919063ffffffff16565b50808273ffffffffffffffffffffffffffffffffffffffff16600073ffffffffffffffffffffffffffffffffffffffff167fddf252ad1be2c89b69c2b068fc378daa952ba7f163c4a11628f55a4df523b3ef60405160405180910390a45050565b600080823b905060008111915050919050565b6060614033848460008561405f565b90509392505050565b600080836001016000848152602001908152602001600020541415905092915050565b6060824710156140ba576040517f08c379a00000000000000000000000000000000000000000000000000000000081526004018080602001828103825260268152602001806144186026913960400191505060405180910390fd5b6140c385614011565b614135576040517f08c379a000000000000000000000000000000000000000000000000000000000815260040180806020018281038252601d8152602001807f416464726573733a2063616c6c20746f206e6f6e2d636f6e747261637400000081525060200191505060405180910390fd5b600060608673ffffffffffffffffffffffffffffffffffffffff1685876040518082805190602001908083835b602083106141855780518252602082019150602081019050602083039250614162565b6001836020036101000a03801982511681845116808217855250505050505090500191505060006040518083038185875af1925050503d80600081146141e7576040519150601f19603f3d011682016040523d82523d6000602084013e6141ec565b606091505b50915091506141fc828286614208565b92505050949350505050565b60608315614218578290506142cd565b60008351111561422b5782518084602001fd5b816040517f08c379a00000000000000000000000000000000000000000000000000000000081526004018080602001828103825283818151815260200191508051906020019080838360005b83811015614292578082015181840152602081019050614277565b50505050905090810190601f1680156142bf5780820380516001836020036101000a031916815260200191505b509250505060405180910390fd5b9392505050565b828054600181600116156101000203166002900490600052602060002090601f016020900481019282601f1061431557805160ff1916838001178555614343565b82800160010185558215614343579182015b82811115614342578251825591602001919060010190614327565b5b5090506143509190614354565b5090565b61437691905b8082111561437257600081600090555060010161435a565b5090565b9056fe456e756d657261626c655365743a20696e646578206f7574206f6620626f756e64734552433732313a207472616e7366657220746f206e6f6e20455243373231526563656976657220696d706c656d656e7465724f776e61626c653a206e6577206f776e657220697320746865207a65726f20616464726573734552433732313a207472616e7366657220746f20746865207a65726f2061646472657373416464726573733a20696e73756666696369656e742062616c616e636520666f722063616c6c4552433732313a206f70657261746f7220717565727920666f72206e6f6e6578697374656e7420746f6b656e4552433732313a20617070726f76652063616c6c6572206973206e6f74206f776e6572206e6f7220617070726f76656420666f7220616c6c4552433732313a2062616c616e636520717565727920666f7220746865207a65726f20616464726573734552433732313a206f776e657220717565727920666f72206e6f6e6578697374656e7420746f6b656e456e756d657261626c654d61703a20696e646578206f7574206f6620626f756e64734552433732313a20617070726f76656420717565727920666f72206e6f6e6578697374656e7420746f6b656e4552433732313a207472616e73666572206f6620746f6b656e2074686174206973206e6f74206f776e4552433732314d657461646174613a2055524920717565727920666f72206e6f6e6578697374656e7420746f6b656e4552433732313a20617070726f76616c20746f2063757272656e74206f776e65724552433732313a207472616e736665722063616c6c6572206973206e6f74206f776e6572206e6f7220617070726f766564a26469706673582212202dc11a7153ca284110a4fb838276d1d93930e6bc6c8ef51908a946448348141a64736f6c63430006020033",
  "source": "\n// SPDX-License-Identifier: MIT\npragma solidity ^0.6.2;\n// https://github.com/OpenZeppelin/openzeppelin-contracts.git\n// import \"github.com/OpenZeppelin/openzeppelin-contracts/blob/243adff49ce1700e0ecb99fe522fb16cff1d1ddc/contracts/token/ERC721/ERC721.sol\";\n// import \"@chainlink/contracts/src/v0.6/VRFConsumerBase.sol\";\n// import \"github.com/OpenZeppelin/openzeppelin-contracts/contracts/access/Ownable.sol\";\n// import \"github.com/OpenZeppelin/openzeppelin-contracts/contracts/utils/Strings.sol\";\n// import \"github.com/OpenZeppelin/openzeppelin-contracts/contracts/token/ERC721/ERC721.sol\";\n\nimport \"@openzeppelin/contracts/access/Ownable.sol\";\nimport \"@openzeppelin/contracts/utils/Strings.sol\";\nimport \"@openzeppelin/contracts/token/ERC721/ERC721.sol\";\n\n// import \"https://github.com/OpenZeppelin/openzeppelin-contracts/blob/243adff49ce1700e0ecb99fe522fb16cff1d1ddc/contracts/token/ERC721/ERC721.sol\";\n// import \"https://github.com/OpenZeppelin/openzeppelin-contracts/blob/243adff49ce1700e0ecb99fe522fb16cff1d1ddc/contracts/access/Ownable.sol\";\n\n// import \"@chainlink/contracts/src/v0.6/VRFConsumerBase.sol\";\n// import \"github.com/OpenZeppelin/openzeppelin-contracts//contracts/access/Ownable.sol\";\n// import \"github.com/OpenZeppelin/openzeppelin-contracts//contracts/utils/Strings.sol\";\n// VRFConsumerBase, Ownable {\n\ncontract EduForAllCourse is ERC721, Ownable { \n    using Strings for string;\n\n    bytes32 internal keyHash;\n    uint256 internal fee;\n    uint256 public randomResult;\n    address public VRFCoordinator;\n    // rinkeby: 0xb3dCcb4Cf7a26f6cf6B120Cf5A73875B7BBc655B\n    address public LinkToken;\n    // rinkeby: 0x01BE23585060835E02B77ef475b0Cc51aA1e0709a\n\n    struct CompletionCertificate {\n        string code;\n        string name;\n        string difficulty;\n        uint256 score;\n        address owner;\n    }\n\n    CompletionCertificate[] public certificates;\n    string private _baseURIextended;\n\n    /**\n     * Constructor inherits VRFConsumerBase\n     *\n     * Network: Rinkeby\n     * Chainlink VRF Coordinator address: 0xb3dCcb4Cf7a26f6cf6B120Cf5A73875B7BBc655B\n     * LINK token address:                0x01BE23585060835E02B77ef475b0Cc51aA1e0709\n     * Key Hash: 0x2ed0feb3e7fd2022120aa84fab1945545a9f2ffc9076fd6156fa96eaff4c1311\n     */\n    constructor(bytes32 _keyhash)\n        public\n        // VRFConsumerBase(_VRFCoordinator, _LinkToken)\n        ERC721(\"Edu4allCourse\", \"EDUC\")\n    {   \n        // VRFCoordinator = _VRFCoordinator;\n        // LinkToken = _LinkToken;\n        keyHash = _keyhash;\n        fee = 0.1 * 10**18; // 0.1 LINK\n    }\n\n    // function setBaseURI(string memory baseURI_) external onlyOwner() {\n    //     _baseURIextended = baseURI_;\n    // }\n    \n\n    // function _setTokenURI(uint256 tokenId, string memory _tokenURI) internal virtual {\n    //     require(_exists(tokenId), \"ERC721Metadata: URI set of nonexistent token\");\n    //     _tokenURIs[tokenId] = _tokenURI;\n    // }\n    \n    // function _baseURI() internal view virtual override returns (string memory) {\n    //     return _baseURIextended;\n    // }\n    \n    // function tokenURI(uint256 tokenId) public view virtual override returns (string memory) {\n    //     require(_exists(tokenId), \"ERC721Metadata: URI query for nonexistent token\");\n\n    //     string memory _tokenURI = tokenId;\n    //     string memory base = _baseURI();\n        \n    //     // If there is no base URI, return the token URI.\n    //     if (bytes(base).length == 0) {\n    //         return _tokenURI;\n    //     }\n    //     // If both are set, concatenate the baseURI and tokenURI (via abi.encodePacked).\n    //     if (bytes(_tokenURI).length > 0) {\n    //         return string(abi.encodePacked(base, _tokenURI));\n    //     }\n    //     // If there is a baseURI but no tokenURI, concatenate the tokenID to the baseURI.\n    //     return string(abi.encodePacked(base, tokenId.toString()));\n    // }\n\n    function requestCertificate (\n        string memory code,\n        string memory name,\n        string memory difficulty,\n        uint256 score\n    ) public returns (string memory) {\n        \n        // check if user already has certificate for this course\n        for (uint i=0; i < certificates.length; i++) {\n            if (certificates[i].owner == msg.sender && stringsEqual(certificates[i].code, code)) {\n                return \"ERR - already awarded\";\n            }\n        }\n\n        uint256 newId = certificates.length;\n        \n        certificates.push(\n            CompletionCertificate(\n                code,\n                name,\n                difficulty,\n                score,\n                msg.sender\n            )\n        );\n        _safeMint(msg.sender, newId);\n        \n        return \"SUCCESS\";\n    }\n\n\n    function getName(uint256 tokenId) public view returns (string memory) {\n        return certificates[tokenId].name;\n    }\n\n    function getDifficulty(uint256 tokenId) public view returns (string memory) {\n        return certificates[tokenId].difficulty;\n    }\n\n    function getCourseOverView(uint256 tokenId)\n        public\n        view\n        returns (\n            string memory,\n            string memory,\n            string memory,\n            uint256\n        )\n    {\n        return (\n            certificates[tokenId].code,\n            certificates[tokenId].name,\n            certificates[tokenId].difficulty,\n            certificates[tokenId].score\n        );\n    }\n    function checkCompletion(string memory courseCode) public view returns (bool) {\n        // check if user already has certificate for this course\n        for (uint i=0; i < certificates.length; i++) {\n            if (certificates[i].owner == msg.sender && stringsEqual(certificates[i].code, courseCode)) {\n                return true;\n            }\n        }    \n        \n        return false;\n\n    }\n\n    function stringsEqual(string memory a, string memory b) public view returns (bool) {\n        return (keccak256(abi.encodePacked((a))) == keccak256(abi.encodePacked((b))));\n    }\n\n    function getTokenURI(uint256 tokenId) public view returns (string memory) {\n        return tokenURI(tokenId);\n    }\n\n}",
  "sourcePath": "/Users/ttoshev/workplaces/Data/Hackathons/Chainlink/truffle-dap/contracts/EduForAllCourse.sol",
  "compiler": {
    "name": "solc",
    "version": "0.6.2+commit.bacdbe57.Emscripten.clang"
  },
  "schemaVersion": "3.3.4",
  "updatedAt": "2021-04-09T20:58:57.246Z",
  "networkType": "ethereum",
  "devdoc": {
    "methods": {
      "approve(address,uint256)": {
        "details": "See {IERC721-approve}."
      },
      "balanceOf(address)": {
        "details": "See {IERC721-balanceOf}."
      },
      "baseURI()": {
        "details": "Returns the base URI set via {_setBaseURI}. This will be automatically added as a prefix in {tokenURI} to each token's URI, or to the token ID if no specific URI is set for that token ID."
      },
      "getApproved(uint256)": {
        "details": "See {IERC721-getApproved}."
      },
      "isApprovedForAll(address,address)": {
        "details": "See {IERC721-isApprovedForAll}."
      },
      "name()": {
        "details": "See {IERC721Metadata-name}."
      },
      "owner()": {
        "details": "Returns the address of the current owner."
      },
      "ownerOf(uint256)": {
        "details": "See {IERC721-ownerOf}."
      },
      "renounceOwnership()": {
        "details": "Leaves the contract without owner. It will not be possible to call `onlyOwner` functions anymore. Can only be called by the current owner.     * NOTE: Renouncing ownership will leave the contract without an owner, thereby removing any functionality that is only available to the owner."
      },
      "safeTransferFrom(address,address,uint256)": {
        "details": "See {IERC721-safeTransferFrom}."
      },
      "safeTransferFrom(address,address,uint256,bytes)": {
        "details": "See {IERC721-safeTransferFrom}."
      },
      "setApprovalForAll(address,bool)": {
        "details": "See {IERC721-setApprovalForAll}."
      },
      "supportsInterface(bytes4)": {
        "details": "See {IERC165-supportsInterface}.     * Time complexity O(1), guaranteed to always use less than 30 000 gas."
      },
      "symbol()": {
        "details": "See {IERC721Metadata-symbol}."
      },
      "tokenByIndex(uint256)": {
        "details": "See {IERC721Enumerable-tokenByIndex}."
      },
      "tokenOfOwnerByIndex(address,uint256)": {
        "details": "See {IERC721Enumerable-tokenOfOwnerByIndex}."
      },
      "tokenURI(uint256)": {
        "details": "See {IERC721Metadata-tokenURI}."
      },
      "totalSupply()": {
        "details": "See {IERC721Enumerable-totalSupply}."
      },
      "transferFrom(address,address,uint256)": {
        "details": "See {IERC721-transferFrom}."
      },
      "transferOwnership(address)": {
        "details": "Transfers ownership of the contract to a new account (`newOwner`). Can only be called by the current owner."
      }
    }
  },
  "userdoc": {
    "methods": {
      "constructor": "Constructor inherits VRFConsumerBase     * Network: Rinkeby Chainlink VRF Coordinator address: 0xb3dCcb4Cf7a26f6cf6B120Cf5A73875B7BBc655B LINK token address:                0x01BE23585060835E02B77ef475b0Cc51aA1e0709 Key Hash: 0x2ed0feb3e7fd2022120aa84fab1945545a9f2ffc9076fd6156fa96eaff4c1311"
    }
  }
}