{
  "contractName": "EduForAllCourse",
  "abi": [
    {
      "inputs": [
        {
          "internalType": "bytes32",
          "name": "_keyhash",
          "type": "bytes32"
        }
      ],
      "stateMutability": "nonpayable",
      "type": "constructor"
    },
    {
      "anonymous": false,
      "inputs": [
        {
          "indexed": true,
          "internalType": "address",
          "name": "owner",
          "type": "address"
        },
        {
          "indexed": true,
          "internalType": "address",
          "name": "approved",
          "type": "address"
        },
        {
          "indexed": true,
          "internalType": "uint256",
          "name": "tokenId",
          "type": "uint256"
        }
      ],
      "name": "Approval",
      "type": "event"
    },
    {
      "anonymous": false,
      "inputs": [
        {
          "indexed": true,
          "internalType": "address",
          "name": "owner",
          "type": "address"
        },
        {
          "indexed": true,
          "internalType": "address",
          "name": "operator",
          "type": "address"
        },
        {
          "indexed": false,
          "internalType": "bool",
          "name": "approved",
          "type": "bool"
        }
      ],
      "name": "ApprovalForAll",
      "type": "event"
    },
    {
      "anonymous": false,
      "inputs": [
        {
          "indexed": true,
          "internalType": "address",
          "name": "previousOwner",
          "type": "address"
        },
        {
          "indexed": true,
          "internalType": "address",
          "name": "newOwner",
          "type": "address"
        }
      ],
      "name": "OwnershipTransferred",
      "type": "event"
    },
    {
      "anonymous": false,
      "inputs": [
        {
          "indexed": true,
          "internalType": "address",
          "name": "from",
          "type": "address"
        },
        {
          "indexed": true,
          "internalType": "address",
          "name": "to",
          "type": "address"
        },
        {
          "indexed": true,
          "internalType": "uint256",
          "name": "tokenId",
          "type": "uint256"
        }
      ],
      "name": "Transfer",
      "type": "event"
    },
    {
      "inputs": [],
      "name": "LinkToken",
      "outputs": [
        {
          "internalType": "address",
          "name": "",
          "type": "address"
        }
      ],
      "stateMutability": "view",
      "type": "function",
      "constant": true
    },
    {
      "inputs": [],
      "name": "VRFCoordinator",
      "outputs": [
        {
          "internalType": "address",
          "name": "",
          "type": "address"
        }
      ],
      "stateMutability": "view",
      "type": "function",
      "constant": true
    },
    {
      "inputs": [
        {
          "internalType": "address",
          "name": "to",
          "type": "address"
        },
        {
          "internalType": "uint256",
          "name": "tokenId",
          "type": "uint256"
        }
      ],
      "name": "approve",
      "outputs": [],
      "stateMutability": "nonpayable",
      "type": "function"
    },
    {
      "inputs": [
        {
          "internalType": "address",
          "name": "owner",
          "type": "address"
        }
      ],
      "name": "balanceOf",
      "outputs": [
        {
          "internalType": "uint256",
          "name": "",
          "type": "uint256"
        }
      ],
      "stateMutability": "view",
      "type": "function",
      "constant": true
    },
    {
      "inputs": [
        {
          "internalType": "uint256",
          "name": "",
          "type": "uint256"
        }
      ],
      "name": "certificates",
      "outputs": [
        {
          "internalType": "string",
          "name": "code",
          "type": "string"
        },
        {
          "internalType": "string",
          "name": "name",
          "type": "string"
        },
        {
          "internalType": "string",
          "name": "difficulty",
          "type": "string"
        },
        {
          "internalType": "uint256",
          "name": "score",
          "type": "uint256"
        },
        {
          "internalType": "address",
          "name": "owner",
          "type": "address"
        }
      ],
      "stateMutability": "view",
      "type": "function",
      "constant": true
    },
    {
      "inputs": [
        {
          "internalType": "uint256",
          "name": "tokenId",
          "type": "uint256"
        }
      ],
      "name": "getApproved",
      "outputs": [
        {
          "internalType": "address",
          "name": "",
          "type": "address"
        }
      ],
      "stateMutability": "view",
      "type": "function",
      "constant": true
    },
    {
      "inputs": [
        {
          "internalType": "address",
          "name": "owner",
          "type": "address"
        },
        {
          "internalType": "address",
          "name": "operator",
          "type": "address"
        }
      ],
      "name": "isApprovedForAll",
      "outputs": [
        {
          "internalType": "bool",
          "name": "",
          "type": "bool"
        }
      ],
      "stateMutability": "view",
      "type": "function",
      "constant": true
    },
    {
      "inputs": [],
      "name": "name",
      "outputs": [
        {
          "internalType": "string",
          "name": "",
          "type": "string"
        }
      ],
      "stateMutability": "view",
      "type": "function",
      "constant": true
    },
    {
      "inputs": [],
      "name": "owner",
      "outputs": [
        {
          "internalType": "address",
          "name": "",
          "type": "address"
        }
      ],
      "stateMutability": "view",
      "type": "function",
      "constant": true
    },
    {
      "inputs": [
        {
          "internalType": "uint256",
          "name": "tokenId",
          "type": "uint256"
        }
      ],
      "name": "ownerOf",
      "outputs": [
        {
          "internalType": "address",
          "name": "",
          "type": "address"
        }
      ],
      "stateMutability": "view",
      "type": "function",
      "constant": true
    },
    {
      "inputs": [],
      "name": "randomResult",
      "outputs": [
        {
          "internalType": "uint256",
          "name": "",
          "type": "uint256"
        }
      ],
      "stateMutability": "view",
      "type": "function",
      "constant": true
    },
    {
      "inputs": [],
      "name": "renounceOwnership",
      "outputs": [],
      "stateMutability": "nonpayable",
      "type": "function"
    },
    {
      "inputs": [
        {
          "internalType": "address",
          "name": "from",
          "type": "address"
        },
        {
          "internalType": "address",
          "name": "to",
          "type": "address"
        },
        {
          "internalType": "uint256",
          "name": "tokenId",
          "type": "uint256"
        }
      ],
      "name": "safeTransferFrom",
      "outputs": [],
      "stateMutability": "nonpayable",
      "type": "function"
    },
    {
      "inputs": [
        {
          "internalType": "address",
          "name": "from",
          "type": "address"
        },
        {
          "internalType": "address",
          "name": "to",
          "type": "address"
        },
        {
          "internalType": "uint256",
          "name": "tokenId",
          "type": "uint256"
        },
        {
          "internalType": "bytes",
          "name": "_data",
          "type": "bytes"
        }
      ],
      "name": "safeTransferFrom",
      "outputs": [],
      "stateMutability": "nonpayable",
      "type": "function"
    },
    {
      "inputs": [
        {
          "internalType": "address",
          "name": "operator",
          "type": "address"
        },
        {
          "internalType": "bool",
          "name": "approved",
          "type": "bool"
        }
      ],
      "name": "setApprovalForAll",
      "outputs": [],
      "stateMutability": "nonpayable",
      "type": "function"
    },
    {
      "inputs": [
        {
          "internalType": "bytes4",
          "name": "interfaceId",
          "type": "bytes4"
        }
      ],
      "name": "supportsInterface",
      "outputs": [
        {
          "internalType": "bool",
          "name": "",
          "type": "bool"
        }
      ],
      "stateMutability": "view",
      "type": "function",
      "constant": true
    },
    {
      "inputs": [],
      "name": "symbol",
      "outputs": [
        {
          "internalType": "string",
          "name": "",
          "type": "string"
        }
      ],
      "stateMutability": "view",
      "type": "function",
      "constant": true
    },
    {
      "inputs": [
        {
          "internalType": "uint256",
          "name": "tokenId",
          "type": "uint256"
        }
      ],
      "name": "tokenURI",
      "outputs": [
        {
          "internalType": "string",
          "name": "",
          "type": "string"
        }
      ],
      "stateMutability": "view",
      "type": "function",
      "constant": true
    },
    {
      "inputs": [
        {
          "internalType": "address",
          "name": "from",
          "type": "address"
        },
        {
          "internalType": "address",
          "name": "to",
          "type": "address"
        },
        {
          "internalType": "uint256",
          "name": "tokenId",
          "type": "uint256"
        }
      ],
      "name": "transferFrom",
      "outputs": [],
      "stateMutability": "nonpayable",
      "type": "function"
    },
    {
      "inputs": [
        {
          "internalType": "address",
          "name": "newOwner",
          "type": "address"
        }
      ],
      "name": "transferOwnership",
      "outputs": [],
      "stateMutability": "nonpayable",
      "type": "function"
    },
    {
      "inputs": [
        {
          "internalType": "string",
          "name": "code",
          "type": "string"
        },
        {
          "internalType": "string",
          "name": "name",
          "type": "string"
        },
        {
          "internalType": "string",
          "name": "difficulty",
          "type": "string"
        },
        {
          "internalType": "uint256",
          "name": "score",
          "type": "uint256"
        }
      ],
      "name": "requestCertificate",
      "outputs": [
        {
          "internalType": "string",
          "name": "",
          "type": "string"
        }
      ],
      "stateMutability": "nonpayable",
      "type": "function"
    },
    {
      "inputs": [
        {
          "internalType": "uint256",
          "name": "tokenId",
          "type": "uint256"
        }
      ],
      "name": "getName",
      "outputs": [
        {
          "internalType": "string",
          "name": "",
          "type": "string"
        }
      ],
      "stateMutability": "view",
      "type": "function",
      "constant": true
    },
    {
      "inputs": [
        {
          "internalType": "uint256",
          "name": "tokenId",
          "type": "uint256"
        }
      ],
      "name": "getDifficulty",
      "outputs": [
        {
          "internalType": "string",
          "name": "",
          "type": "string"
        }
      ],
      "stateMutability": "view",
      "type": "function",
      "constant": true
    },
    {
      "inputs": [
        {
          "internalType": "uint256",
          "name": "tokenId",
          "type": "uint256"
        }
      ],
      "name": "getCourseOverView",
      "outputs": [
        {
          "internalType": "string",
          "name": "",
          "type": "string"
        },
        {
          "internalType": "string",
          "name": "",
          "type": "string"
        },
        {
          "internalType": "string",
          "name": "",
          "type": "string"
        },
        {
          "internalType": "uint256",
          "name": "",
          "type": "uint256"
        }
      ],
      "stateMutability": "view",
      "type": "function",
      "constant": true
    },
    {
      "inputs": [
        {
          "internalType": "string",
          "name": "courseCode",
          "type": "string"
        }
      ],
      "name": "checkCompletion",
      "outputs": [
        {
          "internalType": "bool",
          "name": "",
          "type": "bool"
        }
      ],
      "stateMutability": "view",
      "type": "function",
      "constant": true
    },
    {
      "inputs": [
        {
          "internalType": "string",
          "name": "a",
          "type": "string"
        },
        {
          "internalType": "string",
          "name": "b",
          "type": "string"
        }
      ],
      "name": "stringsEqual",
      "outputs": [
        {
          "internalType": "bool",
          "name": "",
          "type": "bool"
        }
      ],
      "stateMutability": "view",
      "type": "function",
      "constant": true
    },
    {
      "inputs": [
        {
          "internalType": "uint256",
          "name": "tokenId",
          "type": "uint256"
        }
      ],
      "name": "getTokenURI",
      "outputs": [
        {
          "internalType": "string",
          "name": "",
          "type": "string"
        }
      ],
      "stateMutability": "view",
      "type": "function",
      "constant": true
    }
  ],
  "bytecode": "0x60806040523480156200001157600080fd5b506040516200400038038062004000833981810160405281019062000037919062000274565b6040518060400160405280600d81526020017f45647534616c6c436f75727365000000000000000000000000000000000000008152506040518060400160405280600481526020017f45445543000000000000000000000000000000000000000000000000000000008152508160009080519060200190620000bb929190620001ad565b508060019080519060200190620000d4929190620001ad565b5050506000620000e9620001a560201b60201c565b905080600660006101000a81548173ffffffffffffffffffffffffffffffffffffffff021916908373ffffffffffffffffffffffffffffffffffffffff1602179055508073ffffffffffffffffffffffffffffffffffffffff16600073ffffffffffffffffffffffffffffffffffffffff167f8be0079c531659141344cd1fd0a4f28419497f9722a3daafe3b4186f6b6457e060405160405180910390a3508060078190555067016345785d8a00006008819055505062000329565b600033905090565b828054620001bb90620002aa565b90600052602060002090601f016020900481019282620001df57600085556200022b565b82601f10620001fa57805160ff19168380011785556200022b565b828001600101855582156200022b579182015b828111156200022a5782518255916020019190600101906200020d565b5b5090506200023a91906200023e565b5090565b5b80821115620002595760008160009055506001016200023f565b5090565b6000815190506200026e816200030f565b92915050565b6000602082840312156200028757600080fd5b600062000297848285016200025d565b91505092915050565b6000819050919050565b60006002820490506001821680620002c357607f821691505b60208210811415620002da57620002d9620002e0565b5b50919050565b7f4e487b7100000000000000000000000000000000000000000000000000000000600052602260045260246000fd5b6200031a81620002a0565b81146200032657600080fd5b50565b613cc780620003396000396000f3fe608060405234801561001057600080fd5b50600436106101a95760003560e01c80636352211e116100f9578063983ef72511610097578063c87b56dd11610071578063c87b56dd1461050c578063cee969a11461053c578063e985e9c51461056f578063f2fde38b1461059f576101a9565b8063983ef725146104a4578063a22cb465146104d4578063b88d4fde146104f0576101a9565b806370a08231116100d357806370a082311461042e578063715018a61461045e5780638da5cb5b1461046857806395d89b4114610486576101a9565b80636352211e1461039a578063663b3e22146103ca5780636b8ff574146103fe576101a9565b80632621e9f4116101665780633da82bb7116101405780633da82bb71461031257806342619f661461034257806342842e0e146103605780634f8e2fdf1461037c576101a9565b80632621e9f41461029457806333b60863146102c45780633bb3a24d146102e2576101a9565b806301ffc9a7146101ae57806306fdde03146101de578063081812fc146101fc578063095ea7b31461022c57806313d199501461024857806323b872dd14610278575b600080fd5b6101c860048036038101906101c39190612c50565b6105bb565b6040516101d5919061355d565b60405180910390f35b6101e661069d565b6040516101f39190613578565b60405180910390f35b61021660048036038101906102119190612dfa565b61072f565b60405161022391906134f6565b60405180910390f35b61024660048036038101906102419190612c14565b6107b4565b005b610262600480360381019061025d9190612ce3565b6108cc565b60405161026f919061355d565b60405180910390f35b610292600480360381019061028d9190612b0e565b610925565b005b6102ae60048036038101906102a99190612ca2565b610985565b6040516102bb919061355d565b60405180910390f35b6102cc610b46565b6040516102d991906134f6565b60405180910390f35b6102fc60048036038101906102f79190612dfa565b610b6c565b6040516103099190613578565b60405180910390f35b61032c60048036038101906103279190612d4f565b610b7e565b6040516103399190613578565b60405180910390f35b61034a610ece565b604051610357919061385c565b60405180910390f35b61037a60048036038101906103759190612b0e565b610ed4565b005b610384610ef4565b60405161039191906134f6565b60405180910390f35b6103b460048036038101906103af9190612dfa565b610f1a565b6040516103c191906134f6565b60405180910390f35b6103e460048036038101906103df9190612dfa565b610fcc565b6040516103f59594939291906135f4565b60405180910390f35b61041860048036038101906104139190612dfa565b6111ca565b6040516104259190613578565b60405180910390f35b61044860048036038101906104439190612aa9565b6112a7565b604051610455919061385c565b60405180910390f35b61046661135f565b005b61047061149c565b60405161047d91906134f6565b60405180910390f35b61048e6114c6565b60405161049b9190613578565b60405180910390f35b6104be60048036038101906104b99190612dfa565b611558565b6040516104cb9190613578565b60405180910390f35b6104ee60048036038101906104e99190612bd8565b611635565b005b61050a60048036038101906105059190612b5d565b6117b6565b005b61052660048036038101906105219190612dfa565b611818565b6040516105339190613578565b60405180910390f35b61055660048036038101906105519190612dfa565b6118bf565b604051610566949392919061359a565b60405180910390f35b61058960048036038101906105849190612ad2565b611ba6565b604051610596919061355d565b60405180910390f35b6105b960048036038101906105b49190612aa9565b611c3a565b005b60007f80ac58cd000000000000000000000000000000000000000000000000000000007bffffffffffffffffffffffffffffffffffffffffffffffffffffffff1916827bffffffffffffffffffffffffffffffffffffffffffffffffffffffff1916148061068657507f5b5e139f000000000000000000000000000000000000000000000000000000007bffffffffffffffffffffffffffffffffffffffffffffffffffffffff1916827bffffffffffffffffffffffffffffffffffffffffffffffffffffffff1916145b80610696575061069582611de6565b5b9050919050565b6060600080546106ac90613abc565b80601f01602080910402602001604051908101604052809291908181526020018280546106d890613abc565b80156107255780601f106106fa57610100808354040283529160200191610725565b820191906000526020600020905b81548152906001019060200180831161070857829003601f168201915b5050505050905090565b600061073a82611e50565b610779576040517f08c379a00000000000000000000000000000000000000000000000000000000081526004016107709061379c565b60405180910390fd5b6004600083815260200190815260200160002060009054906101000a900473ffffffffffffffffffffffffffffffffffffffff169050919050565b60006107bf82610f1a565b90508073ffffffffffffffffffffffffffffffffffffffff168373ffffffffffffffffffffffffffffffffffffffff161415610830576040517f08c379a00000000000000000000000000000000000000000000000000000000081526004016108279061381c565b60405180910390fd5b8073ffffffffffffffffffffffffffffffffffffffff1661084f611ebc565b73ffffffffffffffffffffffffffffffffffffffff16148061087e575061087d81610878611ebc565b611ba6565b5b6108bd576040517f08c379a00000000000000000000000000000000000000000000000000000000081526004016108b49061371c565b60405180910390fd5b6108c78383611ec4565b505050565b6000816040516020016108df91906134bb565b604051602081830303815290604052805190602001208360405160200161090691906134bb565b6040516020818303038152906040528051906020012014905092915050565b610936610930611ebc565b82611f7d565b610975576040517f08c379a000000000000000000000000000000000000000000000000000000000815260040161096c9061383c565b60405180910390fd5b61098083838361205b565b505050565b600080600090505b600c80549050811015610b3b573373ffffffffffffffffffffffffffffffffffffffff16600c82815481106109eb577f4e487b7100000000000000000000000000000000000000000000000000000000600052603260045260246000fd5b906000526020600020906005020160040160009054906101000a900473ffffffffffffffffffffffffffffffffffffffff1673ffffffffffffffffffffffffffffffffffffffff16148015610b195750610b18600c8281548110610a78577f4e487b7100000000000000000000000000000000000000000000000000000000600052603260045260246000fd5b90600052602060002090600502016000018054610a9490613abc565b80601f0160208091040260200160405190810160405280929190818152602001828054610ac090613abc565b8015610b0d5780601f10610ae257610100808354040283529160200191610b0d565b820191906000526020600020905b815481529060010190602001808311610af057829003601f168201915b5050505050846108cc565b5b15610b28576001915050610b41565b8080610b3390613aee565b91505061098d565b50600090505b919050565b600a60009054906101000a900473ffffffffffffffffffffffffffffffffffffffff1681565b6060610b7782611818565b9050919050565b606060005b600c80549050811015610d65573373ffffffffffffffffffffffffffffffffffffffff16600c8281548110610be1577f4e487b7100000000000000000000000000000000000000000000000000000000600052603260045260246000fd5b906000526020600020906005020160040160009054906101000a900473ffffffffffffffffffffffffffffffffffffffff1673ffffffffffffffffffffffffffffffffffffffff16148015610d0f5750610d0e600c8281548110610c6e577f4e487b7100000000000000000000000000000000000000000000000000000000600052603260045260246000fd5b90600052602060002090600502016000018054610c8a90613abc565b80601f0160208091040260200160405190810160405280929190818152602001828054610cb690613abc565b8015610d035780601f10610cd857610100808354040283529160200191610d03565b820191906000526020600020905b815481529060010190602001808311610ce657829003601f168201915b5050505050876108cc565b5b15610d52576040518060400160405280601581526020017f455252202d20616c726561647920617761726465640000000000000000000000815250915050610ec6565b8080610d5d90613aee565b915050610b83565b506000600c805490509050600c6040518060a001604052808881526020018781526020018681526020018581526020013373ffffffffffffffffffffffffffffffffffffffff1681525090806001815401808255809150506001900390600052602060002090600502016000909190919091506000820151816000019080519060200190610df49291906128cd565b506020820151816001019080519060200190610e119291906128cd565b506040820151816002019080519060200190610e2e9291906128cd565b506060820151816003015560808201518160040160006101000a81548173ffffffffffffffffffffffffffffffffffffffff021916908373ffffffffffffffffffffffffffffffffffffffff1602179055505050610e8c33826122b7565b6040518060400160405280600781526020017f53554343455353000000000000000000000000000000000000000000000000008152509150505b949350505050565b60095481565b610eef838383604051806020016040528060008152506117b6565b505050565b600b60009054906101000a900473ffffffffffffffffffffffffffffffffffffffff1681565b6000806002600084815260200190815260200160002060009054906101000a900473ffffffffffffffffffffffffffffffffffffffff169050600073ffffffffffffffffffffffffffffffffffffffff168173ffffffffffffffffffffffffffffffffffffffff161415610fc3576040517f08c379a0000000000000000000000000000000000000000000000000000000008152600401610fba9061375c565b60405180910390fd5b80915050919050565b600c8181548110610fdc57600080fd5b9060005260206000209060050201600091509050806000018054610fff90613abc565b80601f016020809104026020016040519081016040528092919081815260200182805461102b90613abc565b80156110785780601f1061104d57610100808354040283529160200191611078565b820191906000526020600020905b81548152906001019060200180831161105b57829003601f168201915b50505050509080600101805461108d90613abc565b80601f01602080910402602001604051908101604052809291908181526020018280546110b990613abc565b80156111065780601f106110db57610100808354040283529160200191611106565b820191906000526020600020905b8154815290600101906020018083116110e957829003601f168201915b50505050509080600201805461111b90613abc565b80601f016020809104026020016040519081016040528092919081815260200182805461114790613abc565b80156111945780601f1061116957610100808354040283529160200191611194565b820191906000526020600020905b81548152906001019060200180831161117757829003601f168201915b5050505050908060030154908060040160009054906101000a900473ffffffffffffffffffffffffffffffffffffffff16905085565b6060600c8281548110611206577f4e487b7100000000000000000000000000000000000000000000000000000000600052603260045260246000fd5b9060005260206000209060050201600101805461122290613abc565b80601f016020809104026020016040519081016040528092919081815260200182805461124e90613abc565b801561129b5780601f106112705761010080835404028352916020019161129b565b820191906000526020600020905b81548152906001019060200180831161127e57829003601f168201915b50505050509050919050565b60008073ffffffffffffffffffffffffffffffffffffffff168273ffffffffffffffffffffffffffffffffffffffff161415611318576040517f08c379a000000000000000000000000000000000000000000000000000000000815260040161130f9061373c565b60405180910390fd5b600360008373ffffffffffffffffffffffffffffffffffffffff1673ffffffffffffffffffffffffffffffffffffffff168152602001908152602001600020549050919050565b611367611ebc565b73ffffffffffffffffffffffffffffffffffffffff1661138561149c565b73ffffffffffffffffffffffffffffffffffffffff16146113db576040517f08c379a00000000000000000000000000000000000000000000000000000000081526004016113d2906137bc565b60405180910390fd5b600073ffffffffffffffffffffffffffffffffffffffff16600660009054906101000a900473ffffffffffffffffffffffffffffffffffffffff1673ffffffffffffffffffffffffffffffffffffffff167f8be0079c531659141344cd1fd0a4f28419497f9722a3daafe3b4186f6b6457e060405160405180910390a36000600660006101000a81548173ffffffffffffffffffffffffffffffffffffffff021916908373ffffffffffffffffffffffffffffffffffffffff160217905550565b6000600660009054906101000a900473ffffffffffffffffffffffffffffffffffffffff16905090565b6060600180546114d590613abc565b80601f016020809104026020016040519081016040528092919081815260200182805461150190613abc565b801561154e5780601f106115235761010080835404028352916020019161154e565b820191906000526020600020905b81548152906001019060200180831161153157829003601f168201915b5050505050905090565b6060600c8281548110611594577f4e487b7100000000000000000000000000000000000000000000000000000000600052603260045260246000fd5b906000526020600020906005020160020180546115b090613abc565b80601f01602080910402602001604051908101604052809291908181526020018280546115dc90613abc565b80156116295780601f106115fe57610100808354040283529160200191611629565b820191906000526020600020905b81548152906001019060200180831161160c57829003601f168201915b50505050509050919050565b61163d611ebc565b73ffffffffffffffffffffffffffffffffffffffff168273ffffffffffffffffffffffffffffffffffffffff1614156116ab576040517f08c379a00000000000000000000000000000000000000000000000000000000081526004016116a2906136dc565b60405180910390fd5b80600560006116b8611ebc565b73ffffffffffffffffffffffffffffffffffffffff1673ffffffffffffffffffffffffffffffffffffffff16815260200190815260200160002060008473ffffffffffffffffffffffffffffffffffffffff1673ffffffffffffffffffffffffffffffffffffffff16815260200190815260200160002060006101000a81548160ff0219169083151502179055508173ffffffffffffffffffffffffffffffffffffffff16611765611ebc565b73ffffffffffffffffffffffffffffffffffffffff167f17307eab39ab6107e8899845ad3d59bd9653f200f220920489ca2b5937696c31836040516117aa919061355d565b60405180910390a35050565b6117c76117c1611ebc565b83611f7d565b611806576040517f08c379a00000000000000000000000000000000000000000000000000000000081526004016117fd9061383c565b60405180910390fd5b611812848484846122d5565b50505050565b606061182382611e50565b611862576040517f08c379a0000000000000000000000000000000000000000000000000000000008152600401611859906137fc565b60405180910390fd5b600061186c612331565b9050600081511161188c57604051806020016040528060008152506118b7565b8061189684612348565b6040516020016118a79291906134d2565b6040516020818303038152906040525b915050919050565b60608060606000600c8581548110611900577f4e487b7100000000000000000000000000000000000000000000000000000000600052603260045260246000fd5b9060005260206000209060050201600001600c868154811061194b577f4e487b7100000000000000000000000000000000000000000000000000000000600052603260045260246000fd5b9060005260206000209060050201600101600c8781548110611996577f4e487b7100000000000000000000000000000000000000000000000000000000600052603260045260246000fd5b9060005260206000209060050201600201600c88815481106119e1577f4e487b7100000000000000000000000000000000000000000000000000000000600052603260045260246000fd5b9060005260206000209060050201600301548380546119ff90613abc565b80601f0160208091040260200160405190810160405280929190818152602001828054611a2b90613abc565b8015611a785780601f10611a4d57610100808354040283529160200191611a78565b820191906000526020600020905b815481529060010190602001808311611a5b57829003601f168201915b50505050509350828054611a8b90613abc565b80601f0160208091040260200160405190810160405280929190818152602001828054611ab790613abc565b8015611b045780601f10611ad957610100808354040283529160200191611b04565b820191906000526020600020905b815481529060010190602001808311611ae757829003601f168201915b50505050509250818054611b1790613abc565b80601f0160208091040260200160405190810160405280929190818152602001828054611b4390613abc565b8015611b905780601f10611b6557610100808354040283529160200191611b90565b820191906000526020600020905b815481529060010190602001808311611b7357829003601f168201915b5050505050915093509350935093509193509193565b6000600560008473ffffffffffffffffffffffffffffffffffffffff1673ffffffffffffffffffffffffffffffffffffffff16815260200190815260200160002060008373ffffffffffffffffffffffffffffffffffffffff1673ffffffffffffffffffffffffffffffffffffffff16815260200190815260200160002060009054906101000a900460ff16905092915050565b611c42611ebc565b73ffffffffffffffffffffffffffffffffffffffff16611c6061149c565b73ffffffffffffffffffffffffffffffffffffffff1614611cb6576040517f08c379a0000000000000000000000000000000000000000000000000000000008152600401611cad906137bc565b60405180910390fd5b600073ffffffffffffffffffffffffffffffffffffffff168173ffffffffffffffffffffffffffffffffffffffff161415611d26576040517f08c379a0000000000000000000000000000000000000000000000000000000008152600401611d1d9061367c565b60405180910390fd5b8073ffffffffffffffffffffffffffffffffffffffff16600660009054906101000a900473ffffffffffffffffffffffffffffffffffffffff1673ffffffffffffffffffffffffffffffffffffffff167f8be0079c531659141344cd1fd0a4f28419497f9722a3daafe3b4186f6b6457e060405160405180910390a380600660006101000a81548173ffffffffffffffffffffffffffffffffffffffff021916908373ffffffffffffffffffffffffffffffffffffffff16021790555050565b60007f01ffc9a7000000000000000000000000000000000000000000000000000000007bffffffffffffffffffffffffffffffffffffffffffffffffffffffff1916827bffffffffffffffffffffffffffffffffffffffffffffffffffffffff1916149050919050565b60008073ffffffffffffffffffffffffffffffffffffffff166002600084815260200190815260200160002060009054906101000a900473ffffffffffffffffffffffffffffffffffffffff1673ffffffffffffffffffffffffffffffffffffffff1614159050919050565b600033905090565b816004600083815260200190815260200160002060006101000a81548173ffffffffffffffffffffffffffffffffffffffff021916908373ffffffffffffffffffffffffffffffffffffffff160217905550808273ffffffffffffffffffffffffffffffffffffffff16611f3783610f1a565b73ffffffffffffffffffffffffffffffffffffffff167f8c5be1e5ebec7d5bd14f71427d1e84f3dd0314c0f7b2291e5b200ac8c7c3b92560405160405180910390a45050565b6000611f8882611e50565b611fc7576040517f08c379a0000000000000000000000000000000000000000000000000000000008152600401611fbe906136fc565b60405180910390fd5b6000611fd283610f1a565b90508073ffffffffffffffffffffffffffffffffffffffff168473ffffffffffffffffffffffffffffffffffffffff16148061204157508373ffffffffffffffffffffffffffffffffffffffff166120298461072f565b73ffffffffffffffffffffffffffffffffffffffff16145b8061205257506120518185611ba6565b5b91505092915050565b8273ffffffffffffffffffffffffffffffffffffffff1661207b82610f1a565b73ffffffffffffffffffffffffffffffffffffffff16146120d1576040517f08c379a00000000000000000000000000000000000000000000000000000000081526004016120c8906137dc565b60405180910390fd5b600073ffffffffffffffffffffffffffffffffffffffff168273ffffffffffffffffffffffffffffffffffffffff161415612141576040517f08c379a0000000000000000000000000000000000000000000000000000000008152600401612138906136bc565b60405180910390fd5b61214c8383836124f5565b612157600082611ec4565b6001600360008573ffffffffffffffffffffffffffffffffffffffff1673ffffffffffffffffffffffffffffffffffffffff16815260200190815260200160002060008282546121a791906139d2565b925050819055506001600360008473ffffffffffffffffffffffffffffffffffffffff1673ffffffffffffffffffffffffffffffffffffffff16815260200190815260200160002060008282546121fe919061394b565b92505081905550816002600083815260200190815260200160002060006101000a81548173ffffffffffffffffffffffffffffffffffffffff021916908373ffffffffffffffffffffffffffffffffffffffff160217905550808273ffffffffffffffffffffffffffffffffffffffff168473ffffffffffffffffffffffffffffffffffffffff167fddf252ad1be2c89b69c2b068fc378daa952ba7f163c4a11628f55a4df523b3ef60405160405180910390a4505050565b6122d18282604051806020016040528060008152506124fa565b5050565b6122e084848461205b565b6122ec84848484612555565b61232b576040517f08c379a00000000000000000000000000000000000000000000000000000000081526004016123229061365c565b60405180910390fd5b50505050565b606060405180602001604052806000815250905090565b60606000821415612390576040518060400160405280600181526020017f300000000000000000000000000000000000000000000000000000000000000081525090506124f0565b600082905060005b600082146123c25780806123ab90613aee565b915050600a826123bb91906139a1565b9150612398565b60008167ffffffffffffffff811115612404577f4e487b7100000000000000000000000000000000000000000000000000000000600052604160045260246000fd5b6040519080825280601f01601f1916602001820160405280156124365781602001600182028036833780820191505090505b5090505b600085146124e95760018261244f91906139d2565b9150600a8561245e9190613b37565b603061246a919061394b565b60f81b8183815181106124a6577f4e487b7100000000000000000000000000000000000000000000000000000000600052603260045260246000fd5b60200101907effffffffffffffffffffffffffffffffffffffffffffffffffffffffffffff1916908160001a905350600a856124e291906139a1565b945061243a565b8093505050505b919050565b505050565b61250483836126ec565b6125116000848484612555565b612550576040517f08c379a00000000000000000000000000000000000000000000000000000000081526004016125479061365c565b60405180910390fd5b505050565b60006125768473ffffffffffffffffffffffffffffffffffffffff166128ba565b156126df578373ffffffffffffffffffffffffffffffffffffffff1663150b7a0261259f611ebc565b8786866040518563ffffffff1660e01b81526004016125c19493929190613511565b602060405180830381600087803b1580156125db57600080fd5b505af192505050801561260c57506040513d601f19601f820116820180604052508101906126099190612c79565b60015b61268f573d806000811461263c576040519150601f19603f3d011682016040523d82523d6000602084013e612641565b606091505b50600081511415612687576040517f08c379a000000000000000000000000000000000000000000000000000000000815260040161267e9061365c565b60405180910390fd5b805181602001fd5b63150b7a0260e01b7bffffffffffffffffffffffffffffffffffffffffffffffffffffffff1916817bffffffffffffffffffffffffffffffffffffffffffffffffffffffff1916149150506126e4565b600190505b949350505050565b600073ffffffffffffffffffffffffffffffffffffffff168273ffffffffffffffffffffffffffffffffffffffff16141561275c576040517f08c379a00000000000000000000000000000000000000000000000000000000081526004016127539061377c565b60405180910390fd5b61276581611e50565b156127a5576040517f08c379a000000000000000000000000000000000000000000000000000000000815260040161279c9061369c565b60405180910390fd5b6127b1600083836124f5565b6001600360008473ffffffffffffffffffffffffffffffffffffffff1673ffffffffffffffffffffffffffffffffffffffff1681526020019081526020016000206000828254612801919061394b565b92505081905550816002600083815260200190815260200160002060006101000a81548173ffffffffffffffffffffffffffffffffffffffff021916908373ffffffffffffffffffffffffffffffffffffffff160217905550808273ffffffffffffffffffffffffffffffffffffffff16600073ffffffffffffffffffffffffffffffffffffffff167fddf252ad1be2c89b69c2b068fc378daa952ba7f163c4a11628f55a4df523b3ef60405160405180910390a45050565b600080823b905060008111915050919050565b8280546128d990613abc565b90600052602060002090601f0160209004810192826128fb5760008555612942565b82601f1061291457805160ff1916838001178555612942565b82800160010185558215612942579182015b82811115612941578251825591602001919060010190612926565b5b50905061294f9190612953565b5090565b5b8082111561296c576000816000905550600101612954565b5090565b600061298361297e846138a8565b613877565b90508281526020810184848401111561299b57600080fd5b6129a6848285613a7a565b509392505050565b60006129c16129bc846138d8565b613877565b9050828152602081018484840111156129d957600080fd5b6129e4848285613a7a565b509392505050565b6000813590506129fb81613c35565b92915050565b600081359050612a1081613c4c565b92915050565b600081359050612a2581613c63565b92915050565b600081519050612a3a81613c63565b92915050565b600082601f830112612a5157600080fd5b8135612a61848260208601612970565b91505092915050565b600082601f830112612a7b57600080fd5b8135612a8b8482602086016129ae565b91505092915050565b600081359050612aa381613c7a565b92915050565b600060208284031215612abb57600080fd5b6000612ac9848285016129ec565b91505092915050565b60008060408385031215612ae557600080fd5b6000612af3858286016129ec565b9250506020612b04858286016129ec565b9150509250929050565b600080600060608486031215612b2357600080fd5b6000612b31868287016129ec565b9350506020612b42868287016129ec565b9250506040612b5386828701612a94565b9150509250925092565b60008060008060808587031215612b7357600080fd5b6000612b81878288016129ec565b9450506020612b92878288016129ec565b9350506040612ba387828801612a94565b925050606085013567ffffffffffffffff811115612bc057600080fd5b612bcc87828801612a40565b91505092959194509250565b60008060408385031215612beb57600080fd5b6000612bf9858286016129ec565b9250506020612c0a85828601612a01565b9150509250929050565b60008060408385031215612c2757600080fd5b6000612c35858286016129ec565b9250506020612c4685828601612a94565b9150509250929050565b600060208284031215612c6257600080fd5b6000612c7084828501612a16565b91505092915050565b600060208284031215612c8b57600080fd5b6000612c9984828501612a2b565b91505092915050565b600060208284031215612cb457600080fd5b600082013567ffffffffffffffff811115612cce57600080fd5b612cda84828501612a6a565b91505092915050565b60008060408385031215612cf657600080fd5b600083013567ffffffffffffffff811115612d1057600080fd5b612d1c85828601612a6a565b925050602083013567ffffffffffffffff811115612d3957600080fd5b612d4585828601612a6a565b9150509250929050565b60008060008060808587031215612d6557600080fd5b600085013567ffffffffffffffff811115612d7f57600080fd5b612d8b87828801612a6a565b945050602085013567ffffffffffffffff811115612da857600080fd5b612db487828801612a6a565b935050604085013567ffffffffffffffff811115612dd157600080fd5b612ddd87828801612a6a565b9250506060612dee87828801612a94565b91505092959194509250565b600060208284031215612e0c57600080fd5b6000612e1a84828501612a94565b91505092915050565b612e2c81613a06565b82525050565b612e3b81613a18565b82525050565b6000612e4c82613908565b612e56818561391e565b9350612e66818560208601613a89565b612e6f81613c24565b840191505092915050565b6000612e8582613913565b612e8f818561392f565b9350612e9f818560208601613a89565b612ea881613c24565b840191505092915050565b6000612ebe82613913565b612ec88185613940565b9350612ed8818560208601613a89565b80840191505092915050565b6000612ef160328361392f565b91507f4552433732313a207472616e7366657220746f206e6f6e20455243373231526560008301527f63656976657220696d706c656d656e74657200000000000000000000000000006020830152604082019050919050565b6000612f5760268361392f565b91507f4f776e61626c653a206e6577206f776e657220697320746865207a65726f206160008301527f64647265737300000000000000000000000000000000000000000000000000006020830152604082019050919050565b6000612fbd601c8361392f565b91507f4552433732313a20746f6b656e20616c7265616479206d696e746564000000006000830152602082019050919050565b6000612ffd60248361392f565b91507f4552433732313a207472616e7366657220746f20746865207a65726f2061646460008301527f72657373000000000000000000000000000000000000000000000000000000006020830152604082019050919050565b600061306360198361392f565b91507f4552433732313a20617070726f766520746f2063616c6c6572000000000000006000830152602082019050919050565b60006130a3602c8361392f565b91507f4552433732313a206f70657261746f7220717565727920666f72206e6f6e657860008301527f697374656e7420746f6b656e00000000000000000000000000000000000000006020830152604082019050919050565b600061310960388361392f565b91507f4552433732313a20617070726f76652063616c6c6572206973206e6f74206f7760008301527f6e6572206e6f7220617070726f76656420666f7220616c6c00000000000000006020830152604082019050919050565b600061316f602a8361392f565b91507f4552433732313a2062616c616e636520717565727920666f7220746865207a6560008301527f726f2061646472657373000000000000000000000000000000000000000000006020830152604082019050919050565b60006131d560298361392f565b91507f4552433732313a206f776e657220717565727920666f72206e6f6e657869737460008301527f656e7420746f6b656e00000000000000000000000000000000000000000000006020830152604082019050919050565b600061323b60208361392f565b91507f4552433732313a206d696e7420746f20746865207a65726f20616464726573736000830152602082019050919050565b600061327b602c8361392f565b91507f4552433732313a20617070726f76656420717565727920666f72206e6f6e657860008301527f697374656e7420746f6b656e00000000000000000000000000000000000000006020830152604082019050919050565b60006132e160208361392f565b91507f4f776e61626c653a2063616c6c6572206973206e6f7420746865206f776e65726000830152602082019050919050565b600061332160298361392f565b91507f4552433732313a207472616e73666572206f6620746f6b656e2074686174206960008301527f73206e6f74206f776e00000000000000000000000000000000000000000000006020830152604082019050919050565b6000613387602f8361392f565b91507f4552433732314d657461646174613a2055524920717565727920666f72206e6f60008301527f6e6578697374656e7420746f6b656e00000000000000000000000000000000006020830152604082019050919050565b60006133ed60218361392f565b91507f4552433732313a20617070726f76616c20746f2063757272656e74206f776e6560008301527f72000000000000000000000000000000000000000000000000000000000000006020830152604082019050919050565b600061345360318361392f565b91507f4552433732313a207472616e736665722063616c6c6572206973206e6f74206f60008301527f776e6572206e6f7220617070726f7665640000000000000000000000000000006020830152604082019050919050565b6134b581613a70565b82525050565b60006134c78284612eb3565b915081905092915050565b60006134de8285612eb3565b91506134ea8284612eb3565b91508190509392505050565b600060208201905061350b6000830184612e23565b92915050565b60006080820190506135266000830187612e23565b6135336020830186612e23565b61354060408301856134ac565b81810360608301526135528184612e41565b905095945050505050565b60006020820190506135726000830184612e32565b92915050565b600060208201905081810360008301526135928184612e7a565b905092915050565b600060808201905081810360008301526135b48187612e7a565b905081810360208301526135c88186612e7a565b905081810360408301526135dc8185612e7a565b90506135eb60608301846134ac565b95945050505050565b600060a082019050818103600083015261360e8188612e7a565b905081810360208301526136228187612e7a565b905081810360408301526136368186612e7a565b905061364560608301856134ac565b6136526080830184612e23565b9695505050505050565b6000602082019050818103600083015261367581612ee4565b9050919050565b6000602082019050818103600083015261369581612f4a565b9050919050565b600060208201905081810360008301526136b581612fb0565b9050919050565b600060208201905081810360008301526136d581612ff0565b9050919050565b600060208201905081810360008301526136f581613056565b9050919050565b6000602082019050818103600083015261371581613096565b9050919050565b60006020820190508181036000830152613735816130fc565b9050919050565b6000602082019050818103600083015261375581613162565b9050919050565b60006020820190508181036000830152613775816131c8565b9050919050565b600060208201905081810360008301526137958161322e565b9050919050565b600060208201905081810360008301526137b58161326e565b9050919050565b600060208201905081810360008301526137d5816132d4565b9050919050565b600060208201905081810360008301526137f581613314565b9050919050565b600060208201905081810360008301526138158161337a565b9050919050565b60006020820190508181036000830152613835816133e0565b9050919050565b6000602082019050818103600083015261385581613446565b9050919050565b600060208201905061387160008301846134ac565b92915050565b6000604051905081810181811067ffffffffffffffff8211171561389e5761389d613bf5565b5b8060405250919050565b600067ffffffffffffffff8211156138c3576138c2613bf5565b5b601f19601f8301169050602081019050919050565b600067ffffffffffffffff8211156138f3576138f2613bf5565b5b601f19601f8301169050602081019050919050565b600081519050919050565b600081519050919050565b600082825260208201905092915050565b600082825260208201905092915050565b600081905092915050565b600061395682613a70565b915061396183613a70565b9250827fffffffffffffffffffffffffffffffffffffffffffffffffffffffffffffffff0382111561399657613995613b68565b5b828201905092915050565b60006139ac82613a70565b91506139b783613a70565b9250826139c7576139c6613b97565b5b828204905092915050565b60006139dd82613a70565b91506139e883613a70565b9250828210156139fb576139fa613b68565b5b828203905092915050565b6000613a1182613a50565b9050919050565b60008115159050919050565b60007fffffffff0000000000000000000000000000000000000000000000000000000082169050919050565b600073ffffffffffffffffffffffffffffffffffffffff82169050919050565b6000819050919050565b82818337600083830152505050565b60005b83811015613aa7578082015181840152602081019050613a8c565b83811115613ab6576000848401525b50505050565b60006002820490506001821680613ad457607f821691505b60208210811415613ae857613ae7613bc6565b5b50919050565b6000613af982613a70565b91507fffffffffffffffffffffffffffffffffffffffffffffffffffffffffffffffff821415613b2c57613b2b613b68565b5b600182019050919050565b6000613b4282613a70565b9150613b4d83613a70565b925082613b5d57613b5c613b97565b5b828206905092915050565b7f4e487b7100000000000000000000000000000000000000000000000000000000600052601160045260246000fd5b7f4e487b7100000000000000000000000000000000000000000000000000000000600052601260045260246000fd5b7f4e487b7100000000000000000000000000000000000000000000000000000000600052602260045260246000fd5b7f4e487b7100000000000000000000000000000000000000000000000000000000600052604160045260246000fd5b6000601f19601f8301169050919050565b613c3e81613a06565b8114613c4957600080fd5b50565b613c5581613a18565b8114613c6057600080fd5b50565b613c6c81613a24565b8114613c7757600080fd5b50565b613c8381613a70565b8114613c8e57600080fd5b5056fea26469706673582212205339df70aa2c82edefd2de49b51249af266a77bd3e12cd17d8687bf49766bf0c64736f6c63430008000033",
  "immutableReferences": {},
  "source": "\n// SPDX-License-Identifier: MIT\npragma solidity ^0.8.0;\n// https://github.com/OpenZeppelin/openzeppelin-contracts.git\n// import \"github.com/OpenZeppelin/openzeppelin-contracts/blob/243adff49ce1700e0ecb99fe522fb16cff1d1ddc/contracts/token/ERC721/ERC721.sol\";\n// import \"@chainlink/contracts/src/v0.6/VRFConsumerBase.sol\";\n// import \"github.com/OpenZeppelin/openzeppelin-contracts/contracts/access/Ownable.sol\";\n// import \"github.com/OpenZeppelin/openzeppelin-contracts/contracts/utils/Strings.sol\";\n// import \"github.com/OpenZeppelin/openzeppelin-contracts/contracts/token/ERC721/ERC721.sol\";\n\nimport \"@openzeppelin/contracts/access/Ownable.sol\";\nimport \"@openzeppelin/contracts/utils/Strings.sol\";\nimport \"@openzeppelin/contracts/token/ERC721/ERC721.sol\";\n\n// import \"https://github.com/OpenZeppelin/openzeppelin-contracts/blob/243adff49ce1700e0ecb99fe522fb16cff1d1ddc/contracts/token/ERC721/ERC721.sol\";\n// import \"https://github.com/OpenZeppelin/openzeppelin-contracts/blob/243adff49ce1700e0ecb99fe522fb16cff1d1ddc/contracts/access/Ownable.sol\";\n\n// import \"@chainlink/contracts/src/v0.6/VRFConsumerBase.sol\";\n// import \"github.com/OpenZeppelin/openzeppelin-contracts//contracts/access/Ownable.sol\";\n// import \"github.com/OpenZeppelin/openzeppelin-contracts//contracts/utils/Strings.sol\";\n// VRFConsumerBase, Ownable {\n\ncontract EduForAllCourse is ERC721, Ownable { \n    using Strings for string;\n\n    bytes32 internal keyHash;\n    uint256 internal fee;\n    uint256 public randomResult;\n    address public VRFCoordinator;\n    // rinkeby: 0xb3dCcb4Cf7a26f6cf6B120Cf5A73875B7BBc655B\n    address public LinkToken;\n    // rinkeby: 0x01BE23585060835E02B77ef475b0Cc51aA1e0709a\n\n    struct CompletionCertificate {\n        string code;\n        string name;\n        string difficulty;\n        uint256 score;\n        address owner;\n    }\n\n    CompletionCertificate[] public certificates;\n    string private _baseURIextended;\n\n    /**\n     * Constructor inherits VRFConsumerBase\n     *\n     * Network: Rinkeby\n     * Chainlink VRF Coordinator address: 0xb3dCcb4Cf7a26f6cf6B120Cf5A73875B7BBc655B\n     * LINK token address:                0x01BE23585060835E02B77ef475b0Cc51aA1e0709\n     * Key Hash: 0x2ed0feb3e7fd2022120aa84fab1945545a9f2ffc9076fd6156fa96eaff4c1311\n     */\n    constructor(bytes32 _keyhash)\n        public\n        // VRFConsumerBase(_VRFCoordinator, _LinkToken)\n        ERC721(\"Edu4allCourse\", \"EDUC\")\n    {   \n        // VRFCoordinator = _VRFCoordinator;\n        // LinkToken = _LinkToken;\n        keyHash = _keyhash;\n        fee = 0.1 * 10**18; // 0.1 LINK\n    }\n\n    // function setBaseURI(string memory baseURI_) external onlyOwner() {\n    //     _baseURIextended = baseURI_;\n    // }\n    \n\n    // function _setTokenURI(uint256 tokenId, string memory _tokenURI) internal virtual {\n    //     require(_exists(tokenId), \"ERC721Metadata: URI set of nonexistent token\");\n    //     _tokenURIs[tokenId] = _tokenURI;\n    // }\n    \n    // function _baseURI() internal view virtual override returns (string memory) {\n    //     return _baseURIextended;\n    // }\n    \n    // function tokenURI(uint256 tokenId) public view virtual override returns (string memory) {\n    //     require(_exists(tokenId), \"ERC721Metadata: URI query for nonexistent token\");\n\n    //     string memory _tokenURI = tokenId;\n    //     string memory base = _baseURI();\n        \n    //     // If there is no base URI, return the token URI.\n    //     if (bytes(base).length == 0) {\n    //         return _tokenURI;\n    //     }\n    //     // If both are set, concatenate the baseURI and tokenURI (via abi.encodePacked).\n    //     if (bytes(_tokenURI).length > 0) {\n    //         return string(abi.encodePacked(base, _tokenURI));\n    //     }\n    //     // If there is a baseURI but no tokenURI, concatenate the tokenID to the baseURI.\n    //     return string(abi.encodePacked(base, tokenId.toString()));\n    // }\n\n\n\n\n\n    \n    function requestCertificate (\n        string memory code,\n        string memory name,\n        string memory difficulty,\n        uint256 score\n    ) public returns (string memory) {\n        \n        // check if user already has certificate for this course\n        for (uint i=0; i < certificates.length; i++) {\n            if (certificates[i].owner == msg.sender && stringsEqual(certificates[i].code, code)) {\n                return \"ERR - already awarded\";\n            }\n        }\n\n        uint256 newId = certificates.length;\n        \n        certificates.push(\n            CompletionCertificate(\n                code,\n                name,\n                difficulty,\n                score,\n                msg.sender\n            )\n        );\n        _safeMint(msg.sender, newId);\n        \n        return \"SUCCESS\";\n    }\n\n\n    function getName(uint256 tokenId) public view returns (string memory) {\n        return certificates[tokenId].name;\n    }\n\n    function getDifficulty(uint256 tokenId) public view returns (string memory) {\n        return certificates[tokenId].difficulty;\n    }\n\n    function getCourseOverView(uint256 tokenId)\n        public\n        view\n        returns (\n            string memory,\n            string memory,\n            string memory,\n            uint256\n        )\n    {\n        return (\n            certificates[tokenId].code,\n            certificates[tokenId].name,\n            certificates[tokenId].difficulty,\n            certificates[tokenId].score\n        );\n    }\n    function checkCompletion(string memory courseCode) public view returns (bool) {\n        // check if user already has certificate for this course\n        for (uint i=0; i < certificates.length; i++) {\n            if (certificates[i].owner == msg.sender && stringsEqual(certificates[i].code, courseCode)) {\n                return true;\n            }\n        }    \n        \n        return false;\n\n    }\n\n    function stringsEqual(string memory a, string memory b) public view returns (bool) {\n        return (keccak256(abi.encodePacked((a))) == keccak256(abi.encodePacked((b))));\n    }\n\n    function getTokenURI(uint256 tokenId) public view returns (string memory) {\n        return tokenURI(tokenId);\n    }\n\n}",
  "sourcePath": "/Users/ttoshev/workplaces/Data/Hackathons/Chainlink/truffle-dap/contracts/EduForAllCourse.sol",
  "compiler": {
    "name": "solc",
    "version": "0.8.0+commit.c7dfd78e.Emscripten.clang"
  },
  "schemaVersion": "3.3.4",
  "updatedAt": "2021-04-05T03:50:02.321Z",
  "networkType": "ethereum",
  "devdoc": {
    "kind": "dev",
    "methods": {
      "approve(address,uint256)": {
        "details": "See {IERC721-approve}."
      },
      "balanceOf(address)": {
        "details": "See {IERC721-balanceOf}."
      },
      "getApproved(uint256)": {
        "details": "See {IERC721-getApproved}."
      },
      "isApprovedForAll(address,address)": {
        "details": "See {IERC721-isApprovedForAll}."
      },
      "name()": {
        "details": "See {IERC721Metadata-name}."
      },
      "owner()": {
        "details": "Returns the address of the current owner."
      },
      "ownerOf(uint256)": {
        "details": "See {IERC721-ownerOf}."
      },
      "renounceOwnership()": {
        "details": "Leaves the contract without owner. It will not be possible to call `onlyOwner` functions anymore. Can only be called by the current owner. NOTE: Renouncing ownership will leave the contract without an owner, thereby removing any functionality that is only available to the owner."
      },
      "safeTransferFrom(address,address,uint256)": {
        "details": "See {IERC721-safeTransferFrom}."
      },
      "safeTransferFrom(address,address,uint256,bytes)": {
        "details": "See {IERC721-safeTransferFrom}."
      },
      "setApprovalForAll(address,bool)": {
        "details": "See {IERC721-setApprovalForAll}."
      },
      "supportsInterface(bytes4)": {
        "details": "See {IERC165-supportsInterface}."
      },
      "symbol()": {
        "details": "See {IERC721Metadata-symbol}."
      },
      "tokenURI(uint256)": {
        "details": "See {IERC721Metadata-tokenURI}."
      },
      "transferFrom(address,address,uint256)": {
        "details": "See {IERC721-transferFrom}."
      },
      "transferOwnership(address)": {
        "details": "Transfers ownership of the contract to a new account (`newOwner`). Can only be called by the current owner."
      }
    },
    "version": 1
  },
  "userdoc": {
    "kind": "user",
    "methods": {
      "constructor": {
        "notice": "Constructor inherits VRFConsumerBase Network: Rinkeby Chainlink VRF Coordinator address: 0xb3dCcb4Cf7a26f6cf6B120Cf5A73875B7BBc655B LINK token address:                0x01BE23585060835E02B77ef475b0Cc51aA1e0709 Key Hash: 0x2ed0feb3e7fd2022120aa84fab1945545a9f2ffc9076fd6156fa96eaff4c1311"
      }
    },
    "version": 1
  }
}